:1000000000800020F5010000210200002102000014
:100010002102000021020000210200002102000054
:100020002102000021020000210200002102000044
:100030002102000020020000210200002102000035
:100040002102000021020000210200002102000024
:100050002102000021020000210200002102000014
:100060002102000021020000210200002102000004
:1000700021020000210200002102000021020000F4
:1000800021020000210200002102000021020000E4
:1000900021020000210200002102000021020000D4
:1000A00021020000210200002102000021020000C4
:1000B00021020000210200002102000021020000B4
:1000C00021020000210200002102000021020000A4
:1000D0002102000021020000210200002102000094
:1000E0002102000021020000210200002102000084
:1000F0002102000021020000210200002102000074
:100100002102000021020000210200002102000063
:100110002102000021020000210200002102000053
:100120002102000021020000210200002102000043
:100130002102000021020000210200002102000033
:1001400010B5054C237833B9044B13B1044800E0D3
:1001500000BF0123237010BD7800002000000000C4
:100160006018000008B5034B1BB10349034800E0C9
:1001700000BF08BD000000007C00002060180000E7
:10018000154B002B08BF134B9D46A3F5803A002169
:100190008B460F461348144A121A01F02DF90F4BE3
:1001A000002B00D098470E4B002B00D09847002022
:1001B000002104000D000D48002802D00C4800E08A
:1001C00000BF01F0F5F82000290000F079FD01F0F2
:1001D000DBF800BF000008000080002000000000E5
:1001E0000000000078000020A400002000000000B3
:1001F00000000000064880470649074A074B9A421C
:10020000BEBF51F8040B42F8040BF8E7FFF7B8FF44
:10021000250200006C18000000000020780000207B
:10022000FEE700BF044B054A9A60D3F8882042F4E9
:100230007002C3F88820704700ED00E00000000065
:10024000094B1B6F03F00703022B09D0032B04D0CB
:10025000012B00D0FEE705487047054B1868704732
:10026000044B1868704700BF00800040002D31012A
:1002700008000020040000200D4B1B6F03F0070353
:10028000022B12D0032B0DD0012B00D0FEE7094B1F
:100290000749094A086FC0F303300130B3FBF0F09F
:1002A00010607047054B1B68F2E7054B1B68EFE7D2
:1002B00000800040002D31010000002008000020D7
:1002C00004000020014B1868704700BF08000020A0
:1002D000014B1868704700BF0400002000207047E1
:1002E00000487047002D31014FF40040704700BFB7
:1002F0004FF47A70704700BF014B1868704700BF19
:100300000C00002038B5104B0546D3F820310C46C0
:1003100003F00303022B12D0032B0CD0012B06D0C9
:100320000023184605B1286004B1237038BDFFF7DB
:10033000CFFF0523F6E7FFF7D3FF0223F2E7FFF72E
:10034000C1FF0323EEE700BF00800040002370B52B
:100350000F4A82B00193D2F88041064604F00304AC
:10036000012C0D460DD0022C09D1FFF7B9FF0190E9
:100370000EB1019B336005B12C7002B070BD1C46FC
:10038000F6E7194601A8FFF7BDFF0D24F0E700BF0F
:100390000080004038B5174B0546D3F824310C4691
:1003A00003F00703013B052B20D8DFE803F00B0F18
:1003B00013171B03FFF786FF042305B1286004B160
:1003C000237038BDFFF784FF0523F6E7FFF77AFFB8
:1003D0000323F2E7FFF784FF0223EEE7FFF77EFF38
:1003E0000723EAE7FFF774FF0623E6E70023184632
:1003F000E3E700BF0080004038B5104B0546D3F856
:1004000040310C4603F00303022B12D0032B0CD017
:10041000012B06D00023184605B1286004B12370D3
:1004200038BDFFF761FF0923F6E7FFF761FF0A23F5
:10043000F2E7FFF761FF0823EEE700BF008000400E
:1004400038B5134B0546D3F800320C4603F00703CA
:10045000013B032B18D8DFE803F00F130B02FFF763
:100460000BFF0C23800A05B1286004B1237038BD4E
:10047000FFF73EFF0A23F6E7FFF736FF0923F2E70F
:10048000FFF73AFF0823EEE700231846EBE700BF2B
:100490000080004038B5104B0546D3F840320C467A
:1004A00003F00303022B12D0032B0CD0012B06D038
:1004B0000023184605B1286004B1237038BDFFF74A
:1004C00013FF0923F6E7FFF713FF0A23F2E7FFF70D
:1004D00013FF0823EEE700BF0080004038B5104B43
:1004E0000546D3F860310C4603F00303022B12D00B
:1004F000032B0CD0012B06D00023184605B1286031
:1005000004B1237038BDFFF7EFFE0923F6E7FFF7CC
:10051000EFFE0A23F2E7FFF7EFFE0823EEE700BF46
:10052000008000400B4BD3F8203203F00303012B73
:100530000ED0022B0AD010B40A4608B10023036083
:100540000AB1002313705DF8044B7047FFF754BFE6
:10055000FFF7D8BE00800040430909D100F01F001A
:1005600019BB012203F5005302FA00F0186070472E
:10057000012B15D010B4104A104C00F01F00022BB4
:1005800014BF2346134641B903F50053012202FA72
:1005900000F018605DF8044B704703F58053F5E7F1
:1005A000074B00F01F000029DBD0012203F5805328
:1005B00002FA00F0186070476880004060820040D6
:1005C00064800040002300B53E2883B0019353D0DF
:1005D00018D9B0F5007F7CD027D9B0F5A06F45D0F1
:1005E0002DD9B0F5D06F00F08A8069D9B0F5E06FF1
:1005F00042D0B0F5F06F2CD101A80021FFF76EFFBB
:10060000019819E02B2843D04DD9312823D93C2813
:10061000F2D83A287ED2382828D0392819D101A812
:100620000021FFF7B7FE019806E0522842D06CD9AE
:1006300080287DD1FFF704FE03B05DF804FBB0F520
:10064000607F51D01ED9B0F5806F33D0B0F5906F78
:10065000E5D00020F0E72F285CD22D284FD017D806
:1006600001A80021FFF7C8FE0198E5E701A80021D5
:10067000FFF758FF0198DFE701A80021FFF70AFF05
:100680000198D9E7B0F5207F44D0B0F5407FE0D1A4
:10069000FFF7F2FD344B1B6FC3F380230133B0FB34
:1006A000F3F04008C8E7232834D04BD929280AD8CA
:1006B00028282FD201A80021FFF724FE0198BBE7CC
:1006C000B0F5B06F30D101A80021FFF73FFE0198CF
:1006D000B2E7FFF7B5FD244BD3F89030C3F30463C2
:1006E0000133B0FBF3F0A7E7FFF7AAFD1E4BD3F8E9
:1006F0008030C3F301130133B0FBF3F09CE701A892
:100700000021FFF79DFE019896E74D2817D028D8C5
:100710003F289ED1FFF7B0FD134B1B6FC3F380231F
:100720000133B0FBF3F087E7B0F5C06F98D090E7E6
:1007300013D9B0F5807F93D0B0F5C07F89D1FFF792
:100740009BFD79E72028FAD004D92128E2D022287D
:10075000F5D07EE70028F2D07BE760380128EED99B
:1007600077E74F28EBD274E700800040F0B4A2BBDB
:10077000440025182D0107294FF00F0C05F1804585
:100780001BD805F570356E688F000CFA07FC26EA59
:100790000C0602FA07F73E436E6062B9012202FAC4
:1007A00001F15BBB42F210030444240104F18044D4
:1007B00004F57034E150F0BC704701F1804605F556
:1007C0007035083EEF68B6000CFA06FC27EA0C0705
:1007D00002FA06F63E43EE60DFE701268E4053B98B
:1007E00042F21007440025182D0105F1804505F55A
:1007F0007035EE51BDE741F21007F3E741F2100307
:10080000D2E700BF70B5054616461C46E9B1202C5C
:1008100022D023D9402C16D0602C13D1042206FB01
:1008200002F35A0802EB4112B2FBF3F2AB680D4936
:1008300023F06003AB60AB68203A01EAC2021C43BC
:10084000AC60EA6170BD0622E9E74FF42070FFF763
:10085000B9FE202C0146DCD10822E0E7002CF1D1C2
:100860001022DCE7F8FF7F00F8B540F6AA620446E4
:1008700041F204074FF0010C002341F2050642F259
:10088000480044F807C06261494A0D46494994420C
:10089000A360E365E6602361E361E3642150A3653F
:1008A0005DD002F58042944259D0012342F2040007
:1008B00041F20401AA7C235063501AB1A36843F0AB
:1008C0008043A360EB7C73B1394B2A7D9C4267D097
:1008D000394B9C4204BFA3F52033C3F89C21E36D40
:1008E00043F08003E365298A6B7BEA890B4313435A
:1008F000E360D5E901122B7B2046FFF783FF6B7D78
:100900001BB1A36843F48033A360AB7DEA7D297EED
:100910001B07120502F4E00203F0E04313438A1EB2
:10092000012AA365224B1ED99C4237D003F5804390
:100930009C4214BF4FF0FF33012342F21C6202209D
:100940005B0103F1804303F57033012998501ED1F8
:1009500041F25C030422E2502B786361F8BD236509
:1009600000236365A1E79C421FD003F580439C42AE
:1009700014BF4FF0FF33012341F21C6202205B01E0
:1009800003F1804303F5703303299850E0D042F21D
:100990005C030422E2502B786361F8BD0023CCE7AE
:1009A000A3F51033C3F88C2199E70023E4E700BFD7
:1009B00000C00540FFFF01000000064083695B06A0
:1009C000FCD5C163704700BF2DE9F8431D4DDFF82A
:1009D000788005F21A4903354D452CD0AC78002CAF
:1009E000F9D0FF2C2E786F7827D000F08DF83146A3
:1009F000E02000F093FC274020EA04043C43E4B2EA
:100A000000F082F822463146E02000F059FC00F068
:100A10007BF83146E02000F081FC044600F074F8D9
:100A200031464046FFF7CAFF033521464046FFF7EF
:100A3000C5FF4D45D2D1BDE8F88300F065F83A46D0
:100A4000E1E700BF2414000000C0054010B50121FB
:100A50003A20FFF781FD01212820FFF77DFD0023CB
:100A6000012218460421FFF781FE1024002341F2E1
:100A7000100213481946845018460122FFF776FEEB
:100A80000023012218460321FFF770FE01230422F0
:100A900018460221FFF76AFE012304221946184670
:100AA000FFF764FE0023042201210320FFF75EFE0E
:100AB000BDE810400023012219460320FFF756BE6F
:100AC00000C00340F0B50327142689B00A4D01ACDD
:100AD0000FCD0FC495E80700084B84E80700084ACB
:100AE00001A9C3F834260748C3F82C76C3F81C665E
:100AF000FFF7BAFE09B0F0BD4018000000C0034087
:100B00000300010000C00540704700BF704700BFF0
:100B10000221694B70B4042518468C2419600A46DA
:100B200066491D600A23013B02600A60FBD1013C5B
:100B3000F8D102268C2432465F4860490A23013BE3
:100B400002600A60FBD1013CF8D104238C2502220B
:100B5000594C5A480E600B600A23013B2260026028
:100B6000FBD1013DF8D102268C243246524953482C
:100B70000A23013B0A600260FBD1013CF8D1042347
:100B80008C2502224C4C4D480E600B600A23013B21
:100B900022600260FBD1013DF8D102268C2432464E
:100BA000454846490A23013B02600A60FBD1013CEB
:100BB000F8D104238C2502223F4C40480E600B6084
:100BC0000A23013B22600260FBD1013DF8D10226DD
:100BD0008C243246384939480A23013B0A600260B6
:100BE000FBD1013CF8D104238C250222324C33483E
:100BF0000E600B600A23013B22600260FBD1013DC5
:100C0000F8D102268C2432462B482C490A23013B7A
:100C100002600A60FBD1013CF8D104238C2502223A
:100C2000254C26480E600B600A23013B22600260BF
:100C3000FBD1013DF8D102268C2432461E491F48C3
:100C40000A23013B0A600260FBD1013CF8D1042376
:100C50008C250222184C19480E600B600A23013BB8
:100C600022600260FBD1013DF8D102268C2432467D
:100C7000114812490A23013B02600A60FBD1013C82
:100C8000F8D104238C2502220B4C0C480E600B601B
:100C90000A23013B22600260FBD1013DF8D18C2484
:100CA0000222054805490A23013B02600A60FBD184
:100CB000013CF8D170BC704740D0034040E0034095
:100CC000C44B2DE9F04F1B6883B0C3F30743012BDE
:100CD00010D1C14B4FF48022596E41F26405490393
:100CE0004FF0040458BF42F26401BC485A510460FA
:100CF00058BF5A5014253F2300210124DFF80893E0
:100D0000DFF80883DFF808B3B54FB64EDFF804E329
:100D1000DFF804C389F8005088F80050B248B34A9D
:100D20008BF800303B70DFF8F492B14BDFF8F0A2A3
:100D3000B04DDFF8F0823170AF4E8EF800108CF8B5
:100D4000001001701170197089F800108AF80010F5
:100D500001912C7088F80040FFF778FE234620466A
:100D600001990422FFF702FD346000F08FF9FFF7CC
:100D7000A9FEFFF7CDFE1022E621E02000F0A0FA48
:100D8000E020E522F12100F09BFAFFF71DFEC823C9
:100D900002209A4C8C220A21013920603060FBD15C
:100DA000013AF8D1013BF5D1DA21E02000F0B6FAA2
:100DB000A0B1934CDA21E02000F0B0FABB2100F0A2
:100DC00004062046FFF7FAFD31462046FFF7F6FD00
:100DD000BB212046FFF7F2FD002EEBD1C8230220F5
:100DE000864E854C8C220A21013930602060FBD16F
:100DF000013AF8D1013BF5D13121E02000F08EFA23
:100E0000312100F07F02E02000F05AFAC8230220CE
:100E10007A4E794C8C220A21013930602060FBD156
:100E2000013AF8D1013BF5D1E0200222F62100F091
:100E300047FAC8230220714E6F4C8C220A210139D7
:100E400030602060FBD1013AF8D1013BF5D1C823D5
:100E500002206A4E684C8C220A21013930602060E1
:100E6000FBD1013AF8D1013BF5D1E0206522F12117
:100E700000F026FAC8230220604E5F4C8C220A2123
:100E8000013930602060FBD1013AF8D1013BF5D146
:100E9000DA21E02000F042FAA0B1594CDA21E0203A
:100EA00000F03CFAAA2100F011062046FFF786FD6B
:100EB00031462046FFF782FDAA212046FFF77EFD3E
:100EC000002EEBD1ED21E02000F028FAEC210446C1
:100ED000E02000F023FA2E210246E02000F0F0F995
:100EE000EB21E02000F01AFA2D210246E02000F06C
:100EF000E7F92F21E02000F011FA04F0030400F0DC
:100F0000FC0222432F21E02000F0DAF93121E02019
:100F100000F004FA60F07F02D2B2E020312100F04C
:100F2000CFF9C8230220354E334C8C220A210139D7
:100F300030602060FBD1013AF8D1013BF5D1E020CF
:100F40001F22E62100F0BCF9C82302202B4E2A4CB8
:100F50008C220A21013930602060FBD1013AF8D19E
:100F6000013BF5D1254E244C264B1A6898F80030E9
:100F700002F0010293422A7013D088F80020002A60
:100F80006ED1E621E02000F09BF9CC211C48FFF750
:100F900015FD29781A48FFF711FDCC211848FFF7F5
:100FA0000DFD142002228C210A23013B32602260B5
:100FB000FBD10139F8D10138F5D1DA21E02000F078
:100FC000ADF94FF0140C0222094B18708C210A2342
:100FD0002AE000BF0080E00F008000402020014098
:100FE000970000209C000020940000209600002024
:100FF0009A000020A200002040E0034040D00340BF
:1010000000C0054014C00340950000209F00002050
:10101000980000209E0000209B0000209D000020E2
:10102000A100002099000020013B32602260FBD12A
:101030000139CCD1BCF1010CC8D13A7800F00803D9
:101040009A428AF8003003D03F223B708BF8002090
:1010500000F0100089F80000012398B9336083E79D
:101060001F22E621E02000F02BF9DD210648FFF7E2
:10107000A5FC29780448FFF7A1FCDD210248FFF711
:101080009DFC8EE723606FE700C0054010B501218D
:101090003A20FFF761FA0123042206210020FFF71E
:1010A00065FBBDE810400123042205210020FFF765
:1010B0005DBB00BFF8B50422062101230020FFF725
:1010C00055FB402741F21003202642F21005084C40
:1010D0000A20E750E650FFF719FD67510A20FFF795
:1010E00015FD66510A20BDE8F840FFF70FBD00BFAF
:1010F00000C00340F8B50422062101230020FFF7B9
:1011000035FB202742F21003402641F21005084C1F
:101110000A20E750E650FFF7F9FC67510A20FFF775
:10112000F5FC66510A20BDE8F840FFF7EFBC00BFB0
:1011300000C00340F8B5202542F210060D4C0422F1
:10114000062101230020FFF711FB0A20A551FFF71C
:10115000DDFC41F2100740230A20E351FFF7D6FCE3
:10116000E5510A20FFF7D2FCA5510A20BDE8F8405E
:10117000FFF7CCBC00C00340F8B5202542F21006B2
:10118000134C0422062101230020FFF7EFFAA5519A
:101190000A20FFF7BBFC41F2100740230A20E3516D
:1011A000FFF7B4FCE5510A20FFF7B0FC0023012251
:1011B00018460621FFF7DAFA3C20FFF7A7FC054B9B
:1011C0001B685B0647BFA55100200120A551F8BD53
:1011D00000C0034014C003402DE9F84F2027044607
:1011E0000123042206210020B946FFF7BFFA4FF081
:1011F000080B4FF04008114D114EDFF848A00A20AF
:10120000C5F80090FFF782FC23064CBFC6F80080AB
:10121000C5F800800A20FFF779FC37600A20FFF745
:1012200075FC0BF1FF33640013F0FF0BE4B2E6D161
:1012300042F210034AF80370BDE8F88F10E0034053
:1012400010D0034000C00340202242F210010023CE
:101250002DE9F0471646164C184662500122062129
:10126000FFF784FAB24608250024DFF84C90DFF837
:101270004C80104F0A20C9F800A0FFF747FCC8F8BF
:1012800000600A20FFF742FC3A6864005206E4B2AC
:1012900005F1FF3348BF44F0010413F0FF05E9D125
:1012A00042F210032021024A2046D150BDE8F087C7
:1012B00000C0034014C0034010E0034010D00340BE
:1012C00070B504460E461546FFF7F4FE2046FFF7BC
:1012D00083FF41F6417401E0013C03D0FFF74CFF6E
:1012E0000028F9D03046FFF777FF41F6417401E05E
:1012F000013C03D0FFF740FF0028F9D02846FFF754
:101300006BFF41F6417401E0013C03D0FFF734FF6D
:101310000028F9D0BDE87040FFF7ECBE70B5054677
:101320000E46FFF7C7FE2846FFF756FF41F6417409
:1013300001E0013C03D0FFF71FFF0028F9D0304641
:10134000FFF74AFF41F6417401E0013C03D0FFF78B
:1013500013FF0028F9D0FFF7ADFE45F00100FFF7BD
:101360003BFF41F6417401E0013C03D0FFF704FF6D
:101370000028F9D0FFF768FF0446FFF7DBFEFFF710
:10138000B9FE204670BD00BF08B5074B044613B137
:10139000002100E000BF054B1868836A03B198473D
:1013A000204600F031F800BF000000005C1800008B
:1013B00070B50D4E00250D4CA41BA410A54209D1FB
:1013C0000B4E00250B4C00F021F8A41BA410A542E5
:1013D00005D170BD56F8253001359847EEE756F82F
:1013E000253001359847F2E770000020700000209A
:1013F000700000207400002002440346934200D194
:10140000704703F8011BF9E7FEE700BFF8B500BF1E
:10141000F8BC08BC9E467047F8B500BFF8BC08BCD5
:101420009E4670470000000100000200000300001B
:1014300004000005000006081D07000008700009F0
:101440000F000A00000B00000C00000D00000E0051
:10145000000F000010000011000012000013000037
:1014600014000015000016000017000018000019F5
:1014700000001A00001B70801C0BFF1D08FF1EB02F
:10148000FF1FE3FF20E3FF21E3FF22C0FF2300FF54
:1014900024001F25001F26001F27011F2863FF2986
:1014A0000C7F2A373F2B00002C00002D00FF2E0060
:1014B000FF2F143F3031FF3105FF32C4FF3307FFE8
:1014C0003410FF3500FF3600FF3700FF3800FF39CA
:1014D00000FF3A00FF3B00FF3C00FF3D00FF3E00E5
:1014E0003F3F10FF4000FF4100FF4200FF4300FF6D
:1014F0004400FF4500FF4600FF4700FF4800FF494A
:10150000003F4A10FF4B00FF4C00FF4D00FF4E0014
:10151000FF4F00FF5000FF5100FF5200FF5300FF3C
:1015200054003F5510FF5600FF570BFF5800FF595E
:1015300000FF5A00FF5B00FF5C01FF5D00FF5E00E3
:10154000FF5F003F60100061CBFF627DFF6394FF8F
:101550006405FF6500FF6600FF6771FF6802FF69B1
:1015600000FF6A80BF6B00FF6C00FF6D00FF6E40E4
:10157000FF6F00FF7000FF7100FF7240FF7300FFFC
:101580007480FF7500FF7640FF7700FF7800FF79D9
:1015900000FF7A40FF7B00FF7C00FF7D00FF7E00A4
:1015A000FF7F00FF8000FF81000F82000F8300FF9C
:1015B0008400FF8500FF8600FF8700FF8800FF8909
:1015C00000FF8A00FF8B00FF8C00FF8D00FF8E0064
:1015D000FF8F00FF9000FF91000092FF009300003A
:1015E0009400009500009600009700009800FF9975
:1015F00000FF9A00FF9B00FF9C00FF9D00FF9E00E4
:101600000F9F000FA000FFA100FFA200FFA300FF9B
:10161000A400FFA500FFA600FFA700FFA800FFA9E8
:1016200000FFAA00FFAB00FFAC00FFAD00FFAE0063
:10163000FFAF00FFB000FFB100FFB200FFB300FF3B
:10164000B400FFB5000FB600FFB700FFB800FFB948
:1016500000FFBA00FFBB00FFBC00FFBD00FFBE00E3
:10166000FFBF00FFC000FFC100FFC200FFC300FFBB
:10167000C400FFC500FFC600FFC700FFC800FFC9C8
:1016800000FFCA00FFCB000FCC00FFCD00FFCE0053
:10169000FFCF00FFD000FFD100FFD200FFD300FF3B
:1016A000D400FFD500FFD600FFD700FFD800FFD938
:1016B00000FFDA0000DB0000DC0000DD0D00DE00D2
:1016C00000DF0000E0F400E1F000E20000E30000D1
:1016D000E40000E50000E70000E80000E90000EA9F
:1016E0000000EB0000EC0000ED0000EE1400EF0045
:1016F00000F00000F20202F3F000F40000F5000038
:10170000F70000F80000F9A800FA0000FB8400FCD4
:101710000000FD0000FE0000FF01FF0000000100CE
:1017200000020000030000040000050000060000A5
:101730000700000800000900000A00000B00000C70
:1017400000000D00000E00000F000010000011014D
:101750000012000013000014900015310016000064
:101760001700001801001900001A00001B00001CDF
:1017700000001D00001E00001F00FF2000FF2101CF
:10178000FF2200FF2300FF2490FF2531FF2600FFEA
:101790002700FF2801FF2900FF2A00FF2B000F2C44
:1017A00000002D00002E00002F00FF3000FF31014F
:1017B000FF3200FF3300FF3490FF3531FF3600FF6A
:1017C0003700FF3801FF3900FF3A00FF3B000F3CB4
:1017D00000003D00003E00003F00FF4000FF4101CF
:1017E000FF4200FF4300FF4490FF4531FF4600FFEA
:1017F0004700FF4801FF4900FF4A00FF4B000F4C24
:1018000000004D00004E00004F00FF5000FF51004F
:10181000FF5200FF5300FF5490FF5531FF5600FF69
:101820005700FF5801FF5900FF5A00FF5B000F5C93
:1018300000005D00005E0000FF00FF0000000000EF
:10184000050000000000000000C2010000050000CB
:101850000010000000000000000000001000002048
:041860000000000084
:081864001CE9FF7F01000000F8
:10186C00C0EA2101C0EA210100F049020080000019
:10187C00000000000000000000000000000000005C
:10188C00000000000000000000000000000000004C
:10189C00000000000000000000000000000000003C
:1018AC00000000000000000000000000000000002C
:1018BC00000000000000000000000000000000001C
:1018CC00000000000000000000000000000000000C
:0818DC0065010000410100005C
:04000003000001F503
:00000001FF
