:1000000000800020F5010000210200002102000014
:100010002102000021020000210200002102000054
:100020002102000021020000210200002102000044
:100030002102000020020000210200002102000035
:100040002102000021020000210200002102000024
:100050002102000021020000210200002102000014
:100060002102000021020000210200002102000004
:1000700021020000210200002102000021020000F4
:1000800021020000210200002102000021020000E4
:1000900021020000210200002102000021020000D4
:1000A00021020000210200002102000021020000C4
:1000B00021020000210200002102000021020000B4
:1000C00021020000210200002102000021020000A4
:1000D0002102000021020000210200002102000094
:1000E0002102000021020000210200002102000084
:1000F0002102000021020000210200002102000074
:100100002102000021020000210200002102000063
:100110002102000021020000210200002102000053
:100120002102000021020000210200002102000043
:100130002102000021020000210200002102000033
:1001400010B5054C237833B9044B13B1044800E0D3
:1001500000BF0123237010BD7800002000000000C4
:10016000781E000008B5034B1BB10349034800E0AB
:1001700000BF08BD000000007C000020781E0000C9
:10018000154B002B08BF134B9D46A3F5803A002169
:100190008B460F461348144A121A01F02BFA0F4BE4
:1001A000002B00D098470E4B002B00D09847002022
:1001B000002104000D000D48002802D00C4800E08A
:1001C00000BF01F0F3F92000290000F09FFD01F0CD
:1001D000D9F900BF000008000080002000000000E6
:1001E0000000000078000020A800002000000000AF
:1001F00000000000064880470649074A074B9A421C
:10020000BEBF51F8040B42F8040BF8E7FFF7B8FF44
:1002100025020000841E000000000020780000205D
:10022000FEE700BF044B054A9A60D3F8882042F4E9
:100230007002C3F88820704700ED00E00000000065
:10024000094B1B6F03F00703022B09D0032B04D0CB
:10025000012B00D0FEE705487047054B1868704732
:10026000044B1868704700BF00800040002D31012A
:1002700008000020040000200D4B1B6F03F0070353
:10028000022B12D0032B0DD0012B00D0FEE7094B1F
:100290000749094A086FC0F303300130B3FBF0F09F
:1002A00010607047054B1B68F2E7054B1B68EFE7D2
:1002B00000800040002D31010000002008000020D7
:1002C00004000020014B1868704700BF08000020A0
:1002D000014B1868704700BF0400002000207047E1
:1002E00000487047002D31014FF40040704700BFB7
:1002F0004FF47A70704700BF014B1868704700BF19
:100300000C00002038B5104B0546D3F820310C46C0
:1003100003F00303022B12D0032B0CD0012B06D0C9
:100320000023184605B1286004B1237038BDFFF7DB
:10033000CFFF0523F6E7FFF7D3FF0223F2E7FFF72E
:10034000C1FF0323EEE700BF00800040002370B52B
:100350000F4A82B00193D2F88041064604F00304AC
:10036000012C0D460DD0022C09D1FFF7B9FF0190E9
:100370000EB1019B336005B12C7002B070BD1C46FC
:10038000F6E7194601A8FFF7BDFF0D24F0E700BF0F
:100390000080004038B5174B0546D3F824310C4691
:1003A00003F00703013B052B20D8DFE803F00B0F18
:1003B00013171B03FFF786FF042305B1286004B160
:1003C000237038BDFFF784FF0523F6E7FFF77AFFB8
:1003D0000323F2E7FFF784FF0223EEE7FFF77EFF38
:1003E0000723EAE7FFF774FF0623E6E70023184632
:1003F000E3E700BF0080004038B5104B0546D3F856
:1004000040310C4603F00303022B12D0032B0CD017
:10041000012B06D00023184605B1286004B12370D3
:1004200038BDFFF761FF0923F6E7FFF761FF0A23F5
:10043000F2E7FFF761FF0823EEE700BF008000400E
:1004400038B5134B0546D3F800320C4603F00703CA
:10045000013B032B18D8DFE803F00F130B02FFF763
:100460000BFF0C23800A05B1286004B1237038BD4E
:10047000FFF73EFF0A23F6E7FFF736FF0923F2E70F
:10048000FFF73AFF0823EEE700231846EBE700BF2B
:100490000080004038B5104B0546D3F840320C467A
:1004A00003F00303022B12D0032B0CD0012B06D038
:1004B0000023184605B1286004B1237038BDFFF74A
:1004C00013FF0923F6E7FFF713FF0A23F2E7FFF70D
:1004D00013FF0823EEE700BF0080004038B5104B43
:1004E0000546D3F860310C4603F00303022B12D00B
:1004F000032B0CD0012B06D00023184605B1286031
:1005000004B1237038BDFFF7EFFE0923F6E7FFF7CC
:10051000EFFE0A23F2E7FFF7EFFE0823EEE700BF46
:10052000008000400B4BD3F8203203F00303012B73
:100530000ED0022B0AD010B40A4608B10023036083
:100540000AB1002313705DF8044B7047FFF754BFE6
:10055000FFF7D8BE00800040430909D100F01F001A
:1005600019BB012203F5005302FA00F0186070472E
:10057000012B15D010B4104A104C00F01F00022BB4
:1005800014BF2346134641B903F50053012202FA72
:1005900000F018605DF8044B704703F58053F5E7F1
:1005A000074B00F01F000029DBD0012203F5805328
:1005B00002FA00F0186070476880004060820040D6
:1005C00064800040002300B53E2883B0019353D0DF
:1005D00018D9B0F5007F7CD027D9B0F5A06F45D0F1
:1005E0002DD9B0F5D06F00F08A8069D9B0F5E06FF1
:1005F00042D0B0F5F06F2CD101A80021FFF76EFFBB
:10060000019819E02B2843D04DD9312823D93C2813
:10061000F2D83A287ED2382828D0392819D101A812
:100620000021FFF7B7FE019806E0522842D06CD9AE
:1006300080287DD1FFF704FE03B05DF804FBB0F520
:10064000607F51D01ED9B0F5806F33D0B0F5906F78
:10065000E5D00020F0E72F285CD22D284FD017D806
:1006600001A80021FFF7C8FE0198E5E701A80021D5
:10067000FFF758FF0198DFE701A80021FFF70AFF05
:100680000198D9E7B0F5207F44D0B0F5407FE0D1A4
:10069000FFF7F2FD344B1B6FC3F380230133B0FB34
:1006A000F3F04008C8E7232834D04BD929280AD8CA
:1006B00028282FD201A80021FFF724FE0198BBE7CC
:1006C000B0F5B06F30D101A80021FFF73FFE0198CF
:1006D000B2E7FFF7B5FD244BD3F89030C3F30463C2
:1006E0000133B0FBF3F0A7E7FFF7AAFD1E4BD3F8E9
:1006F0008030C3F301130133B0FBF3F09CE701A892
:100700000021FFF79DFE019896E74D2817D028D8C5
:100710003F289ED1FFF7B0FD134B1B6FC3F380231F
:100720000133B0FBF3F087E7B0F5C06F98D090E7E6
:1007300013D9B0F5807F93D0B0F5C07F89D1FFF792
:100740009BFD79E72028FAD004D92128E2D022287D
:10075000F5D07EE70028F2D07BE760380128EED99B
:1007600077E74F28EBD274E700800040F0B4A2BBDB
:10077000440025182D0107294FF00F0C05F1804585
:100780001BD805F570356E688F000CFA07FC26EA59
:100790000C0602FA07F73E436E6062B9012202FAC4
:1007A00001F15BBB42F210030444240104F18044D4
:1007B00004F57034E150F0BC704701F1804605F556
:1007C0007035083EEF68B6000CFA06FC27EA0C0705
:1007D00002FA06F63E43EE60DFE701268E4053B98B
:1007E00042F21007440025182D0105F1804505F55A
:1007F0007035EE51BDE741F21007F3E741F2100307
:10080000D2E700BF70B5054616461C46E9B1202C5C
:1008100022D023D9402C16D0602C13D1042206FB01
:1008200002F35A0802EB4112B2FBF3F2AB680D4936
:1008300023F06003AB60AB68203A01EAC2021C43BC
:10084000AC60EA6170BD0622E9E74FF42070FFF763
:10085000B9FE202C0146DCD10822E0E7002CF1D1C2
:100860001022DCE7F8FF7F00F8B540F6AA620446E4
:1008700041F204074FF0010C002341F2050642F259
:10088000480044F807C06261494A0D46494994420C
:10089000A360E365E6602361E361E3642150A3653F
:1008A0005DD002F58042944259D0012342F2040007
:1008B00041F20401AA7C235063501AB1A36843F0AB
:1008C0008043A360EB7C73B1394B2A7D9C4267D097
:1008D000394B9C4204BFA3F52033C3F89C21E36D40
:1008E00043F08003E365298A6B7BEA890B4313435A
:1008F000E360D5E901122B7B2046FFF783FF6B7D78
:100900001BB1A36843F48033A360AB7DEA7D297EED
:100910001B07120502F4E00203F0E04313438A1EB2
:10092000012AA365224B1ED99C4237D003F5804390
:100930009C4214BF4FF0FF33012342F21C6202209D
:100940005B0103F1804303F57033012998501ED1F8
:1009500041F25C030422E2502B786361F8BD236509
:1009600000236365A1E79C421FD003F580439C42AE
:1009700014BF4FF0FF33012341F21C6202205B01E0
:1009800003F1804303F5703303299850E0D042F21D
:100990005C030422E2502B786361F8BD0023CCE7AE
:1009A000A3F51033C3F88C2199E70023E4E700BFD7
:1009B00000C00540FFFF01000000064083695B06A0
:1009C000FCD5C163704700BF2DE9F041174D05F21A
:1009D0001A480335454523D0AC78002CF9D0FF2CBC
:1009E0002E786F781ED000F0B5F83146E02000F088
:1009F00093FD274020EA04043C43E4B200F0AAF847
:100A000022463146E02000F059FD033500F0A2F8FF
:100A10003146E02000F080FD00F09CF84545DBD138
:100A2000BDE8F08100F096F83A46EAE720160000AB
:100A30002DE9F041174D05F21A480335454523D0FD
:100A4000AC78002CF9D0FF2C2E786F781ED000F0F7
:100A500081F83146E02000F05FFD274020EA0404E1
:100A60003C43E4B200F076F822463146E02000F044
:100A700025FD033500F06EF83146E02000F04CFD16
:100A800000F068F84545DBD1BDE8F08100F062F880
:100A90003A46EAE73C1A000010B501213A20FFF778
:100AA0005BFD01212820FFF757FD00230122184696
:100AB0000421FFF75BFE1024002341F210021348CB
:100AC0001946845018460122FFF750FE00230122E8
:100AD00018460321FFF74AFE01230422184602218B
:100AE000FFF744FE0123042219461846FFF73EFE95
:100AF0000023042201210320FFF738FEBDE8104047
:100B00000023012219460320FFF730BE00C0034036
:100B1000F0B50327142689B00A4D01AC0FCD0FC4E0
:100B200095E80700084B84E80700084A01A9C3F8C4
:100B300034260748C3F82C76C3F81C66FFF794FEEA
:100B400009B0F0BD581E000000C0034003000100C2
:100B500000C00540704700BF704700BF0221694BCD
:100B600070B4042518468C2419600A4666491D6035
:100B70000A23013B02600A60FBD1013CF8D1022646
:100B80008C2432465F4860490A23013B02600A60B8
:100B9000FBD1013CF8D104238C250222594C5A4840
:100BA0000E600B600A23013B22600260FBD1013D15
:100BB000F8D102268C243246524953480A23013B7D
:100BC0000A600260FBD1013CF8D104238C2502228B
:100BD0004C4C4D480E600B600A23013B22600260C2
:100BE000FBD1013DF8D102268C24324645484649C6
:100BF0000A23013B02600A60FBD1013CF8D10423C7
:100C00008C2502223F4C40480E600B600A23013BBA
:100C100022600260FBD1013DF8D102268C243246CD
:100C2000384939480A23013B0A600260FBD1013C84
:100C3000F8D104238C250222324C33480E600B601D
:100C40000A23013B22600260FBD1013DF8D102265C
:100C50008C2432462B482C490A23013B02600A604F
:100C6000FBD1013CF8D104238C250222254C2648D7
:100C70000E600B600A23013B22600260FBD1013D44
:100C8000F8D102268C2432461E491F480A23013B14
:100C90000A600260FBD1013CF8D104238C250222BA
:100CA000184C19480E600B600A23013B2260026059
:100CB000FBD1013DF8D102268C243246114812495D
:100CC0000A23013B02600A60FBD1013CF8D10423F6
:100CD0008C2502220B4C0C480E600B600A23013B52
:100CE00022600260FBD1013DF8D18C24022205482C
:100CF00005490A23013B02600A60FBD1013CF8D19F
:100D000070BC704740D0034040E003402DE9F84FED
:100D1000C64B1B68C3F30743012B10D1C44B4FF4E0
:100D20008022596E41F2640549034FF0040458BF14
:100D300042F26401BF485A51046058BF5A504FF004
:100D4000000914223F230124BB49DFF828E381F87E
:100D50000090BA49DFF8208381F80090B84FB94974
:100D6000DFF818A3B84EB94DDFF814C38EF8002091
:100D700088F80020B648B74A87F8009081F80090BC
:100D80008AF80030B4493370B44FB54BDFF8F482C1
:100D900085F80090B34D8CF8009014701C7080F8AA
:100DA000009081F800903C7088F80040FFF774FED6
:100DB0002346204649460422FFF7D8FC2C6000F069
:100DC00063FAFFF7A5FEFFF7C9FE1022E621E02037
:100DD00000F074FBE020E522F12100F06FFBFFF74B
:100DE00027FEC8230220A04C8C220A210139206052
:100DF0002860FBD1013AF8D1013BF5D1DA21E0209E
:100E000000F08AFBA0B1994CDA21E02000F084FBCD
:100E1000BB2100F004052046FFF7D0FD29462046FF
:100E2000FFF7CCFDBB212046FFF7C8FD002DEBD11D
:100E3000C82302208C4D8B4C8C220A21013928605A
:100E40002060FBD1013AF8D1013BF5D13121E020FE
:100E500000F062FB312100F07F02E02000F02EFB69
:100E6000C8230220804D7F4C8C220A210139286042
:100E70002060FBD1013AF8D1013BF5D1E0200222FC
:100E8000F62100F01BFBC8230220774D754C8C2205
:100E90000A21013928602060FBD1013AF8D1013BD9
:100EA000F5D1C8230220704D6E4C8C220A210139E5
:100EB00028602060FBD1013AF8D1013BF5D1E02058
:100EC0006522F12100F0FAFAC8230220664D654C34
:100ED0008C220A21013928602060FBD1013AF8D127
:100EE000013BF5D1DA21E02000F016FBA0B15F4C08
:100EF000DA21E02000F010FBAA2100F011052046C5
:100F0000FFF75CFD29462046FFF758FDAA21204641
:100F1000FFF754FD002DEBD1ED21E02000F0FCFAAD
:100F2000EC210446E02000F0F7FA2E210246E020F2
:100F300000F0C4FAEB21E02000F0EEFA2D21024689
:100F4000E02000F0BBFA2F21E02000F0E5FA04F0E9
:100F5000030400F0FC0222432F21E02000F0AEFA4F
:100F60003121E02000F0D8FA60F07F02D2B2E02018
:100F7000312100F0A3FAC82202203B4D394C8C23CA
:100F80000A21013928602060FBD1013BF8D1013AE8
:100F9000F5D1E020E62100F091FAC8230220324D7D
:100FA000304C8C220A21013928602060FBD1013AA3
:100FB000F8D1013BF5D12C4D2A4C2D4B98F800204F
:100FC0001B68C3F3C0039A423B7063D11420022212
:100FD0008C210A23013B2A602260FBD10139F8D120
:100FE0000138F5D1DA21E02000F096FA4FF0140C28
:100FF0000222124B18708C210A23013B2A602260C6
:10100000FBD10139F8D1BCF1010CF4D1327800F0F8
:10101000080311499A420B7003D03F2233708AF8BB
:101020000020084B00F0100018702DE00080E00F49
:101030000080004020200140960000209C000020FD
:101040009E0000209F000020970000209D000020AF
:1010500094000020A4000020A30000209B0000209A
:101060009900002040E0034040D0034000C005400C
:1010700014C00340A100002095000020980000202B
:10108000A00000209A0000200123002840F0F880F2
:101090002B6092E71022E621E02088F8003000F073
:1010A0000DFAE522F121E02000F008FA3B78012B4F
:1010B00000F0E380FFF788FCC82002228C210A237D
:1010C000013B2A602260FBD10139F8D10138F5D10A
:1010D000DA21E02000F020FAB0B1DFF8A891DA219F
:1010E000E02000F019FABB2100F0040B4846FFF79E
:1010F00065FC59464846FFF761FCBB214846FFF7AF
:101100005DFCBBF1000FEAD1C82002228C210A232A
:10111000013B2A602260FBD10139F8D10138F5D1B9
:101120003121E02000F0F8F9312100F07F02E020C9
:1011300000F0C4F9C82002228C210A23013B2A6056
:101140002260FBD10139F8D10138F5D10222E0202B
:10115000F62100F0B3F9C82002228C210A23013BBA
:101160002A602260FBD10139F8D10138F5D1C820BD
:1011700002228C210A23013B2A602260FBD1013923
:10118000F8D10138F5D16522E020F12100F096F97F
:10119000C82002228C210A23013B2A602260FBD155
:1011A0000139F8D10138F5D1DA21E02000F0B4F9A5
:1011B000B0B1DFF8D090DA21E02000F0ADF9AA213B
:1011C00000F0110B4846FFF7F9FB59464846FFF778
:1011D000F5FBAA214846FFF7F1FBBBF1000FEAD16E
:1011E000ED21E02000F098F9EC218146E02000F0AC
:1011F00093F92E210246E02000F060F9EB21E02077
:1012000000F08AF92D210246E02000F057F92F2145
:10121000E02000F081F909F0030900F0FC0242EA45
:1012200009022F21E02000F049F93121E02000F0EF
:1012300073F960F07F02D2B23121E02000F03EF974
:10124000C82202218C200A23013B29602160FBD1A6
:101250000138F8D1013AF5D1E020E62100F02EF96D
:10126000C82002228C210A23013B2A602260FBD184
:101270000139F8D10138F5D1A8E6FFF7D9FB1BE712
:1012800023609AE600C0054010B501213A20FFF71F
:1012900063F90123042206210020FFF767FABDE865
:1012A00010400123042205210020FFF75FBA00BF90
:1012B000F8B50422062101230020FFF757FA402742
:1012C00041F21003202642F21005084C0A20E75094
:1012D000E650FFF741FC67510A20FFF73DFC6651DD
:1012E0000A20BDE8F840FFF737BC00BF00C003404C
:1012F000F8B50422062101230020FFF737FA202742
:1013000042F21003402641F21005084C0A20E75033
:10131000E650FFF721FC67510A20FFF71DFC6651DC
:101320000A20BDE8F840FFF717BC00BF00C003402B
:10133000F8B5202542F210060D4C042206210123A7
:101340000020FFF713FA0A20A551FFF705FC41F230
:10135000100740230A20E351FFF7FEFBE5510A2066
:10136000FFF7FAFBA5510A20BDE8F840FFF7F4BBF0
:1013700000C00340F8B5202542F21006134C0422A9
:10138000062101230020FFF7F1F9A5510A20FFF7FC
:10139000E3FB41F2100740230A20E351FFF7DCFB97
:1013A000E5510A20FFF7D8FB002301221846062149
:1013B000FFF7DCF93C20FFF7CFFB054B1B685B0612
:1013C00047BFA55100200120A551F8BD00C0034032
:1013D00014C003402DE9F84F2027044601230422BE
:1013E00006210020B946FFF7C1F94FF0080B4FF076
:1013F0004008114D114EDFF848A00A20C5F80090B2
:10140000FFF7AAFB23064CBFC6F80080C5F8008092
:101410000A20FFF7A1FB37600A20FFF79DFB0BF1C5
:10142000FF33640013F0FF0BE4B2E6D142F2100385
:101430004AF80370BDE8F88F10E0034010D0034075
:1014400000C00340202242F2100100232DE9F047A2
:101450001646164C1846625001220621FFF786F9FF
:10146000B24608250024DFF84C90DFF84C80104F7E
:101470000A20C9F800A0FFF76FFBC8F800600A2037
:10148000FFF76AFB3A6864005206E4B205F1FF33E5
:1014900048BF44F0010413F0FF05E9D142F2100304
:1014A0002021024A2046D150BDE8F08700C0034009
:1014B00014C0034010E0034010D0034070B5044650
:1014C0000E461546FFF7F4FE2046FFF783FF41F670
:1014D000417401E0013C03D0FFF74CFF0028F9D034
:1014E0003046FFF777FF41F6417401E0013C03D03D
:1014F000FFF740FF0028F9D02846FFF76BFF41F6C1
:10150000417401E0013C03D0FFF734FF0028F9D01B
:10151000BDE87040FFF7ECBE70B505460E46FFF71C
:10152000C7FE2846FFF756FF41F6417401E0013C33
:1015300003D0FFF71FFF0028F9D03046FFF74AFF1E
:1015400041F6417401E0013C03D0FFF713FF00288E
:10155000F9D0FFF7ADFE45F00100FFF73BFF41F684
:10156000417401E0013C03D0FFF704FF0028F9D0EB
:10157000FFF768FF0446FFF7DBFEFFF7B9FE2046E2
:1015800070BD00BF08B5074B044613B1002100E051
:1015900000BF054B1868836A03B19847204600F0E6
:1015A00031F800BF00000000741E000070B50D4E41
:1015B00000250D4CA41BA410A54209D10B4E0025FB
:1015C0000B4C00F021F8A41BA410A54205D170BD5E
:1015D00056F8253001359847EEE756F825300135A5
:1015E0009847F2E770000020700000207000002093
:1015F0007400002002440346934200D1704703F870
:10160000011BF9E7FEE700BFF8B500BFF8BC08BC56
:101610009E467047F8B500BFF8BC08BC9E467047B0
:1016200000000001000002000003000004000005AB
:10163000000006081D070000087000090F000A00DE
:10164000000B00000C00000D00000E00000F000059
:10165000100000110000120000130000140000151B
:1016600000001600001700001800001900001A0002
:10167000001B70801C0BFF1D4AFF1EB0FF1FE3FF05
:1016800020E3FF21E3FF22C0FF2300FF24001F25EA
:10169000001F26001F27011F2863FF290C7F2A3700
:1016A0003F2B00002C00002D00FF2E00FF2F143FC9
:1016B0003039FF3100FF32C4FF3307FF3410FF35EC
:1016C00000FF3600FF3700FF3800FF3900FF3A0007
:1016D000FF3B00FF3C00FF3D00FF3E003F3F10FF8F
:1016E0004000FF4100FF4200FF4300FF4400FF4570
:1016F00000FF4600FF4700FF4800FF49003F4A1037
:10170000FF4B00FF4C00FF4D00FF4E00FF4F00FF5E
:101710005000FF5100FF5200FF5300FF54003F559F
:1017200010FF5600FF570CFF5800FF5900FF5A00EA
:10173000FF5B00FF5C01FF5D00FF5E00FF5F003F9D
:101740006010006193FF6230FF6354FF64C7FF6560
:1017500000FF6600FF6709FF683DFF6900FF6A80C0
:10176000BF6B00FF6C00FF6D00FF6E40FF6F00FF5E
:101770007000FF7100FF7240FF7300FF7480FF75FF
:1017800000FF7640FF7700FF7800FF7900FF7A4086
:10179000FF7B00FF7C00FF7D00FF7E00FF7F00FFDE
:1017A0008000FF81000F82000F8300FF8400FF850F
:1017B00000FF8600FF8700FF8800FF8900FF8A0086
:1017C000FF8B00FF8C00FF8D00FF8E00FF8F00FF5E
:1017D0009000FF91000092FF00930000940000959C
:1017E00000009600009700009800FF9900FF9A0003
:1017F000FF9B00FF9C00FF9D00FF9E000F9F000FBE
:10180000A000FFA100FFA200FFA300FFA400FFA50E
:1018100000FFA600FFA700FFA800FFA900FFAA0085
:10182000FFAB00FFAC00FFAD00FFAE00FFAF00FF5D
:10183000B000FFB100FFB200FFB300FFB400FFB57E
:10184000000FB600FFB700FFB800FFB900FFBA00F5
:10185000FFBB00FFBC00FFBD00FFBE00FFBF00FFDD
:10186000C000FFC100FFC200FFC300FFC400FFC5EE
:1018700000FFC600FFC700FFC800FFC900FFCA0085
:10188000FFCB000FCC00FFCD00FFCE00FFCF00FF4D
:10189000D000FFD100FFD200FFD300FFD400FFD55E
:1018A00000FFD600FFD700FFD800FFD900FFDA0005
:1018B00000DB0000DC0000DD0D00DE0000DF0000CA
:1018C000E0F400E1F000E20000E30000E40000E5E5
:1018D0000000E70000E80000E90000EA0000EB007B
:1018E00000EC0000ED0000EE1400EF0000F000003E
:1018F000F20202F3F000F40000F50000F70000F837
:101900000000F9A800FA0000FB8400FC0000FD00C4
:1019100000FE0000FF01FF000000010000020000C7
:101920000300000400000500000600000700000896
:1019300000000900000A00000B00000C00000D0070
:10194000000E00000F000010000011010012000046
:101950001300001490001531001600001700001845
:1019600001001900001A00001B00001C00001D00EF
:10197000001E00001F00FF2000FF2101FF2200FFCA
:101980002300FF2490FF2531FF2600FF2700FF28BA
:1019900001FF2900FF2A00FF2B000F2C00002D0063
:1019A000002E00002F00FF3000FF3101FF3200FF4A
:1019B0003300FF3490FF3531FF3600FF3700FF382A
:1019C00001FF3900FF3A00FF3B000F3C00003D00E3
:1019D000003E00003F00FF4000FF4101FF4200FFCA
:1019E0004300FF4490FF4531FF4600FF4700FF489A
:1019F00001FF4900FF4A00FF4B000F4C00004D0063
:101A0000004E00004F00FF5000FF5100FF5200FF4A
:101A10005300FF5490FF5531FF5600FF5700FF5809
:101A200001FF5900FF5A00FF5B000F5C00005D00E2
:101A3000005E0000FF00FF00000000000000000149
:101A4000000002000003000004000005000006087A
:101A50001D070000087000090F000A00000B0000BD
:101A60000C00000D00000E00000F0000100000111F
:101A70000000120000130000140000150000160002
:101A8000001700001800001900001A00001B7080E9
:101A90001C0BFF1D4AFF1EB0FF1FE3FF20E3FF21C9
:101AA000E3FF22C0FF2300FF24001F25001F2600A4
:101AB0001F27011F2863FF290C7F2A373F2B0000B7
:101AC0002C00002D00FF2E00FF2F143F3037FF3178
:101AD00000FF32C4FF3307FF3410FF3500FF36002C
:101AE000FF3700FF3800FF3900FF3A00FF3B00FFDF
:101AF0003C00FF3D00FF3E003F3F10FF4000FF4124
:101B000000FF4200FF4300FF4400FF4500FF460086
:101B1000FF4700FF4800FF49003F4A10FF4B00FF0E
:101B20004C00FF4D00FF4E00FF4F00FF5000FF51E3
:101B300000FF5200FF5300FF54003F5510FF5600B6
:101B4000FF570BFF5800FF5900FF5A00FF5B00FFD3
:101B50005C01FF5D00FF5E00FF5F003F6010006101
:101B60001EFF6231FF6328FF640BFF6500FF660004
:101B7000FF6735FF680CFF6900FF6A80BF6B00FFDD
:101B80006C00FF6D00FF6E40FF6F00FF7000FF7183
:101B900000FF7240FF7300FF7480FF7500FF764006
:101BA000FF7700FF7800FF7900FF7A40FF7B00FF9E
:101BB0007C00FF7D00FF7E00FF7F00FF8000FF8133
:101BC000000F82000F8300FF8400FF8500FF860066
:101BD000FF8700FF8800FF8900FF8A00FF8B00FF5E
:101BE0008C00FF8D00FF8E00FF8F00FF9000FF91A3
:101BF000000092FF00930000940000950000960002
:101C0000009700009800FF9900FF9A00FF9B00FFDB
:101C10009C00FF9D00FF9E000F9F000FA000FFA1F2
:101C200000FFA200FFA300FFA400FFA500FFA60085
:101C3000FFA700FFA800FFA900FFAA00FFAB00FF5D
:101C4000AC00FFAD00FFAE00FFAF00FFB000FFB182
:101C500000FFB200FFB300FFB400FFB5000FB600F5
:101C6000FFB700FFB800FFB900FFBA00FFBB00FFDD
:101C7000BC00FFBD00FFBE00FFBF00FFC000FFC1F2
:101C800000FFC200FFC300FFC400FFC500FFC60085
:101C9000FFC700FFC800FFC900FFCA00FFCB000F4D
:101CA000CC00FFCD00FFCE00FFCF00FFD000FFD162
:101CB00000FFD200FFD300FFD400FFD500FFD60005
:101CC000FFD700FFD800FFD900FFDA0000DB0000DB
:101CD000DC0000DD0D00DE0000DF0000E0F400E1CC
:101CE000F000E20000E30000E40000E50000E7008F
:101CF00000E80000E90000EA0000EB0000EC000052
:101D0000ED0000EE1400EF0000F00000F20202F31C
:101D1000F000F40000F50000F70000F80000F9A85A
:101D200000FA0000FB8400FC0000FD0000FE000043
:101D3000FF01FF000000010000020000030000049A
:101D40000000050000060000070000080000090070
:101D5000000A00000B00000C00000D00000E000047
:101D60000F00001000001101001200001300001409
:101D7000900015310016000017000018010019002E
:101D8000001A00001B00001C00001D00001E0000C7
:101D90001F00FF2000FF2101FF2200FF2300FF247E
:101DA00090FF2531FF2600FF2700FF2801FF2900B3
:101DB000FF2A00FF2B000F2C00002D00002E00003A
:101DC0002F00FF3000FF3101FF3200FF3300FF34EE
:101DD00090FF3531FF3600FF3700FF3801FF390033
:101DE000FF3A00FF3B000F3C00003D00003E0000BA
:101DF0003F00FF4000FF4101FF4200FF4300FF445E
:101E000090FF4531FF4600FF4700FF4801FF4900B2
:101E1000FF4A00FF4B000F4C00004D00004E000039
:101E20004F00FF5000FF5100FF5200FF5300FF54CE
:101E300090FF5531FF5600FF5700FF5801FF590032
:101E4000FF5A00FF5B000F5C00005D00005E0000B9
:101E5000FF00FF000000000005000000000000007F
:101E600000C201000005000000100000000000009A
:0C1E700000000000100000200000000036
:081E7C0004E3FF7F01000000F8
:101E8400C0EA2101C0EA210100F0490200800000FB
:101E9400000000000000000000000000000000003E
:101EA400000000000000000000000000000000002E
:101EB400000000000000000000000000000000001E
:101EC400000000000000000000000000000000000E
:101ED40000000000000000000000000000000000FE
:101EE40000000000000000000000000000000000EE
:081EF40065010000410100003E
:04000003000001F503
:00000001FF
