S01C00004546523332424732324331313246333532474D33322E733337F9
S113000000800020F5010000210200002102000010
S11300102102000021020000210200002102000050
S11300202102000021020000210200002102000040
S11300302102000020020000210200002102000031
S11300402102000021020000210200002102000020
S11300502102000021020000210200002102000010
S11300602102000021020000210200002102000000
S113007021020000210200002102000021020000F0
S113008021020000210200002102000021020000E0
S113009021020000210200002102000021020000D0
S11300A021020000210200002102000021020000C0
S11300B021020000210200002102000021020000B0
S11300C021020000210200002102000021020000A0
S11300D02102000021020000210200002102000090
S11300E02102000021020000210200002102000080
S11300F02102000021020000210200002102000070
S1130100210200002102000021020000210200005F
S1130110210200002102000021020000210200004F
S1130120210200002102000021020000210200003F
S1130130210200002102000021020000210200002F
S113014010B5054C237833B9044B13B1044800E0CF
S113015000BF0123237010BD6800002000000000D0
S11301600098000008B5034B1BB10349034800E0A5
S113017000BF08BD000000006C00002000980000D3
S1130180154B002B08BF134B9D46A3F5803A002165
S11301908B460F461348144A121A03F0C9F90F4B41
S11301A0002B00D098470E4B002B00D0984700201E
S11301B0002104000D000D48002802D00C4800E086
S11301C000BF03F091F92000290001F007FF03F0BC
S11301D077F900BF00000800008000200000000044
S11301E000000000680000209400002000000000CF
S11301F000000000064880470649074A074B9A4218
S1130200BEBF51F8040B42F8040BF8E7FFF7B8FF40
S1130210250200000C980000000000206800002067
S1130220FEE700BF80B400AF074B084A9A60064B54
S1130230D3F88830044A43F47003C2F8883000BF0E
S1130240BD465DF8047B704700ED00E0000000004F
S113025080B487B000AFF860B9607A607B68002B27
S113026004D0FB6803F580537B6103E0FB6803F56E
S113027000537B610122BB689A407B691A6000BF0E
S11302801C37BD465DF8047B7047000080B584B020
S113029000AF03460A46FB8013467B710023FB60D4
S11302A0FB885B099BB2002B11D0FB885B099BB2D6
S11302B0012B02D10D4BFB6009E0FB885B099BB26B
S11302C0022B02D10A4BFB6001E00A4BFB60FB8866
S11302D003F01F03BB607B791A46B968F868FFF71F
S11302E0B7FF00BF1037BD4680BD00BF648000402B
S11302F0688000406082004080B483B000AF034651
S11303003960FB71FB79002B07D0FB79012B04D0FA
S1130310FB79022B01D0FB79032B01223B6802FA03
S113032003F30949FA79184613465B0013441B0189
S11303300B4403F500531033186000BF0C37BD465F
S11303405DF8047B704700BF00C0034080B483B0F5
S113035000AF03463960FB71FB79002B07D0FB79B2
S1130360012B04D0FB79022B01D0FB79032B012252
S11303703B6802FA03F30949FA79184613465B000D
S113038013441B010B4403F580531033186000BF62
S11303900C37BD465DF8047B704700BF00C00340C6
S11303A080B584B000AFB9607B600346FB7313462D
S11303B0BB73FB7B002B07D0FB7B012B04D0FB7BA7
S11303C0022B01D0FB7B032BBB7B002B0DD07B6866
S11303D0002B05D0FB7BB9681846FFF7B7FF04E094
S11303E0FB7BB9681846FFF787FFBB68072B20D84B
S11303F02D49FA7B13465B0013441B010B44043361
S11304001A68BB689B000F2101FA03F3DB43134016
S1130410B97BBA68920001FA02F211462248FA7BCB
S1130420194313465B0013441B010344043319604E
S113043025E01D49FA7B13465B0013441B010B4462
S11304400C331A68BB6803F18043083B9B000F21FF
S113045001FA03F3DB4302EA0301BA7BBB6803F14D
S11304608043083B9B0002FA03F30F48FA7B1943CD
S113047013465B0013441B0103440C331960BB7B1C
S1130480002B0DD17B68002B05D0FB7BB968184687
S1130490FFF75CFF04E0FB7BB9681846FFF72CFF0D
S11304A000BF1037BD4680BD00C0034080B584B096
S11304B000AF0023FB720023BB7200237B72002376
S11304C03B720023FB710023BB710023FB6063E0DC
S11304D03549FA6813465B0013440B4402331B7816
S11304E07B717B79002B54D02F49FA6813465B004B
S11304F013440B441B783B712B49FA6813465B0089
S113050013440B4401331B78FB707B79FF2B13D10D
S113051001F0EEFCFA783B791946E02002F030FF56
S113052001F0E6FC3B791946E02002F073FF034634
S1130530FB7101F0DDFC2CE001F0DAFC3B7919469B
S1130540E02002F067FF0346FB7297F90530DB43B6
S11305505AB297F90B3013405BB2BB72FA787B79CD
S113056013407B72BA7A7B7A13433B7201F0C0FC6E
S11305703A7A3B791946E02002F002FF01F0B8FC18
S11305803B791946E02002F045FF0346BB7101F0B8
S1130590AFFCFB680133FB60FB68B3F5AF7F97D317
S11305A000BF1037BD4680BD3C56000080B584B006
S11305B000AF0023FB720023BB7200237B72002375
S11305C03B720023FB710023BB710023FB6063E0DB
S11305D03549FA6813465B0013440B4402331B7815
S11305E07B717B79002B54D02F49FA6813465B004A
S11305F013440B441B783B712B49FA6813465B0088
S113060013440B4401331B78FB707B79FF2B13D10C
S113061001F06EFCFA783B791946E02002F0B0FE56
S113062001F066FC3B791946E02002F0F3FE034634
S1130630FB7101F05DFC2CE001F05AFC3B7919469A
S1130640E02002F0E7FE0346FB7297F90530DB4336
S11306505AB297F90B3013405BB2BB72FA787B79CC
S113066013407B72BA7A7B7A13433B7201F040FCED
S11306703A7A3B791946E02002F082FE01F038FC18
S11306803B791946E02002F0C5FE0346BB7101F038
S11306902FFCFB680133FB60FB68B3F5AF7F97D396
S11306A000BF1037BD4680BD585A000080B584B0E5
S11306B000AF0023FB720023BB7200237B72002374
S11306C03B720023FB710023BB710023FB6063E0DA
S11306D03549FA6813465B0013440B4402331B7814
S11306E07B717B79002B54D02F49FA6813465B0049
S11306F013440B441B783B712B49FA6813465B0087
S113070013440B4401331B78FB707B79FF2B13D10B
S113071001F0EEFBFA783B791946E02002F030FE56
S113072001F0E6FB3B791946E02002F073FE034634
S1130730FB7101F0DDFB2CE001F0DAFB3B7919469B
S1130740E02002F067FE0346FB7297F90530DB43B5
S11307505AB297F90B3013405BB2BB72FA787B79CB
S113076013407B72BA7A7B7A13433B7201F0C0FB6D
S11307703A7A3B791946E02002F002FE01F0B8FB18
S11307803B791946E02002F045FE0346BB7101F0B7
S1130790AFFBFB680133FB60FB68B3F5AF7F97D316
S11307A000BF1037BD4680BD745E000080B584B0C4
S11307B000AF0023FB720023BB7200237B72002373
S11307C03B720023FB710023BB710023FB6063E0D9
S11307D03549FA6813465B0013440B4402331B7813
S11307E07B717B79002B54D02F49FA6813465B0048
S11307F013440B441B783B712B49FA6813465B0086
S113080013440B4401331B78FB707B79FF2B13D10A
S113081001F06EFBFA783B791946E02002F0B0FD56
S113082001F066FB3B791946E02002F0F3FD034634
S1130830FB7101F05DFB2CE001F05AFB3B7919469A
S1130840E02002F0E7FD0346FB7297F90530DB4335
S11308505AB297F90B3013405BB2BB72FA787B79CA
S113086013407B72BA7A7B7A13433B7201F040FBEC
S11308703A7A3B791946E02002F082FD01F038FB18
S11308803B791946E02002F0C5FD0346BB7101F037
S11308902FFBFB680133FB60FB68B3F5AF7F97D395
S11308A000BF1037BD4680BD9062000080B584B0A3
S11308B000AF0023FB720023BB7200237B72002372
S11308C03B720023FB710023BB710023FB6063E0D8
S11308D03549FA6813465B0013440B4402331B7812
S11308E07B717B79002B54D02F49FA6813465B0047
S11308F013440B441B783B712B49FA6813465B0085
S113090013440B4401331B78FB707B79FF2B13D109
S113091001F0EEFAFA783B791946E02002F030FD56
S113092001F0E6FA3B791946E02002F073FD034634
S1130930FB7101F0DDFA2CE001F0DAFA3B7919469B
S1130940E02002F067FD0346FB7297F90530DB43B4
S11309505AB297F90B3013405BB2BB72FA787B79C9
S113096013407B72BA7A7B7A13433B7201F0C0FA6C
S11309703A7A3B791946E02002F002FD01F0B8FA18
S11309803B791946E02002F045FD0346BB7101F0B6
S1130990AFFAFB680133FB60FB68B3F5AF7F97D315
S11309A000BF1037BD4680BDAC66000080B584B082
S11309B000AF0023FB720023BB7200237B72002371
S11309C03B720023FB710023BB710023FB6063E0D7
S11309D03549FA6813465B0013440B4402331B7811
S11309E07B717B79002B54D02F49FA6813465B0046
S11309F013440B441B783B712B49FA6813465B0084
S1130A0013440B4401331B78FB707B79FF2B13D108
S1130A1001F06EFAFA783B791946E02002F0B0FC56
S1130A2001F066FA3B791946E02002F0F3FC034634
S1130A30FB7101F05DFA2CE001F05AFA3B7919469A
S1130A40E02002F0E7FC0346FB7297F90530DB4334
S1130A505AB297F90B3013405BB2BB72FA787B79C8
S1130A6013407B72BA7A7B7A13433B7201F040FAEB
S1130A703A7A3B791946E02002F082FC01F038FA18
S1130A803B791946E02002F0C5FC0346BB7101F036
S1130A902FFAFB680133FB60FB68B3F5AF7F97D394
S1130AA000BF1037BD4680BDC86A000080B584B061
S1130AB000AF0023FB720023BB7200237B72002370
S1130AC03B720023FB710023BB710023FB6063E0D6
S1130AD03549FA6813465B0013440B4402331B7810
S1130AE07B717B79002B54D02F49FA6813465B0045
S1130AF013440B441B783B712B49FA6813465B0083
S1130B0013440B4401331B78FB707B79FF2B13D107
S1130B1001F0EEF9FA783B791946E02002F030FC56
S1130B2001F0E6F93B791946E02002F073FC034634
S1130B30FB7101F0DDF92CE001F0DAF93B7919469B
S1130B40E02002F067FC0346FB7297F90530DB43B3
S1130B505AB297F90B3013405BB2BB72FA787B79C7
S1130B6013407B72BA7A7B7A13433B7201F0C0F96B
S1130B703A7A3B791946E02002F002FC01F0B8F918
S1130B803B791946E02002F045FC0346BB7101F0B5
S1130B90AFF9FB680133FB60FB68B3F5AF7F97D314
S1130BA000BF1037BD4680BDE46E000080B584B040
S1130BB000AF0023FB720023BB7200237B7200236F
S1130BC03B720023FB710023BB710023FB6063E0D5
S1130BD03549FA6813465B0013440B4402331B780F
S1130BE07B717B79002B54D02F49FA6813465B0044
S1130BF013440B441B783B712B49FA6813465B0082
S1130C0013440B4401331B78FB707B79FF2B13D106
S1130C1001F06EF9FA783B791946E02002F0B0FB56
S1130C2001F066F93B791946E02002F0F3FB034634
S1130C30FB7101F05DF92CE001F05AF93B7919469A
S1130C40E02002F0E7FB0346FB7297F90530DB4333
S1130C505AB297F90B3013405BB2BB72FA787B79C6
S1130C6013407B72BA7A7B7A13433B7201F040F9EA
S1130C703A7A3B791946E02002F082FB01F038F918
S1130C803B791946E02002F0C5FB0346BB7101F035
S1130C902FF9FB680133FB60FB68B3F5AF7F97D393
S1130CA000BF1037BD4680BD0073000080B584B01E
S1130CB000AF0023FB720023BB7200237B7200236E
S1130CC03B720023FB710023BB710023FB6063E0D4
S1130CD03549FA6813465B0013440B4402331B780E
S1130CE07B717B79002B54D02F49FA6813465B0043
S1130CF013440B441B783B712B49FA6813465B0081
S1130D0013440B4401331B78FB707B79FF2B13D105
S1130D1001F0EEF8FA783B791946E02002F030FB56
S1130D2001F0E6F83B791946E02002F073FB034634
S1130D30FB7101F0DDF82CE001F0DAF83B7919469B
S1130D40E02002F067FB0346FB7297F90530DB43B2
S1130D505AB297F90B3013405BB2BB72FA787B79C5
S1130D6013407B72BA7A7B7A13433B7201F0C0F86A
S1130D703A7A3B791946E02002F002FB01F0B8F818
S1130D803B791946E02002F045FB0346BB7101F0B4
S1130D90AFF8FB680133FB60FB68B3F5AF7F97D313
S1130DA000BF1037BD4680BD1C77000080B584B0FD
S1130DB000AF0023FB720023BB7200237B7200236D
S1130DC03B720023FB710023BB710023FB6063E0D3
S1130DD03549FA6813465B0013440B4402331B780D
S1130DE07B717B79002B54D02F49FA6813465B0042
S1130DF013440B441B783B712B49FA6813465B0080
S1130E0013440B4401331B78FB707B79FF2B13D104
S1130E1001F06EF8FA783B791946E02002F0B0FA56
S1130E2001F066F83B791946E02002F0F3FA034634
S1130E30FB7101F05DF82CE001F05AF83B7919469A
S1130E40E02002F0E7FA0346FB7297F90530DB4332
S1130E505AB297F90B3013405BB2BB72FA787B79C4
S1130E6013407B72BA7A7B7A13433B7201F040F8E9
S1130E703A7A3B791946E02002F082FA01F038F818
S1130E803B791946E02002F0C5FA0346BB7101F034
S1130E902FF8FB680133FB60FB68B3F5AF7F97D392
S1130EA000BF1037BD4680BD387B000080B584B0DC
S1130EB000AF0023FB720023BB7200237B7200236C
S1130EC03B720023FB710023BB710023FB6063E0D2
S1130ED03549FA6813465B0013440B4402331B780C
S1130EE07B717B79002B54D02F49FA6813465B0041
S1130EF013440B441B783B712B49FA6813465B007F
S1130F0013440B4401331B78FB707B79FF2B13D103
S1130F1000F0EEFFFA783B791946E02002F030FA4F
S1130F2000F0E6FF3B791946E02002F073FA03462D
S1130F30FB7100F0DDFF2CE000F0DAFF3B7919468D
S1130F40E02002F067FA0346FB7297F90530DB43B1
S1130F505AB297F90B3013405BB2BB72FA787B79C3
S1130F6013407B72BA7A7B7A13433B7200F0C0FF62
S1130F703A7A3B791946E02002F002FA00F0B8FF11
S1130F803B791946E02002F045FA0346BB7100F0B4
S1130F90AFFFFB680133FB60FB68B3F5AF7F97D30A
S1130FA000BF1037BD4680BD547F000080B584B0BB
S1130FB000AF0023FB720023BB7200237B7200236B
S1130FC03B720023FB710023BB710023FB6063E0D1
S1130FD03549FA6813465B0013440B4402331B780B
S1130FE07B717B79002B54D02F49FA6813465B0040
S1130FF013440B441B783B712B49FA6813465B007E
S113100013440B4401331B78FB707B79FF2B13D102
S113101000F06EFFFA783B791946E02002F0B0F94F
S113102000F066FF3B791946E02002F0F3F903462D
S1131030FB7100F05DFF2CE000F05AFF3B7919468C
S1131040E02002F0E7F90346FB7297F90530DB4331
S11310505AB297F90B3013405BB2BB72FA787B79C2
S113106013407B72BA7A7B7A13433B7200F040FFE1
S11310703A7A3B791946E02002F082F900F038FF11
S11310803B791946E02002F0C5F90346BB7100F034
S11310902FFFFB680133FB60FB68B3F5AF7F97D389
S11310A000BF1037BD4680BD7083000080B584B09A
S11310B000AF0023FB720023BB7200237B7200236A
S11310C03B720023FB710023BB710023FB6063E0D0
S11310D03549FA6813465B0013440B4402331B780A
S11310E07B717B79002B54D02F49FA6813465B003F
S11310F013440B441B783B712B49FA6813465B007D
S113110013440B4401331B78FB707B79FF2B13D101
S113111000F0EEFEFA783B791946E02002F030F94F
S113112000F0E6FE3B791946E02002F073F903462D
S1131130FB7100F0DDFE2CE000F0DAFE3B7919468D
S1131140E02002F067F90346FB7297F90530DB43B0
S11311505AB297F90B3013405BB2BB72FA787B79C1
S113116013407B72BA7A7B7A13433B7200F0C0FE61
S11311703A7A3B791946E02002F002F900F0B8FE11
S11311803B791946E02002F045F90346BB7100F0B3
S1131190AFFEFB680133FB60FB68B3F5AF7F97D309
S11311A000BF1037BD4680BD8C87000080B584B079
S11311B000AF0023FB720023BB7200237B72002369
S11311C03B720023FB710023BB710023FB6063E0CF
S11311D03549FA6813465B0013440B4402331B7809
S11311E07B717B79002B54D02F49FA6813465B003E
S11311F013440B441B783B712B49FA6813465B007C
S113120013440B4401331B78FB707B79FF2B13D100
S113121000F06EFEFA783B791946E02002F0B0F84F
S113122000F066FE3B791946E02002F0F3F803462D
S1131230FB7100F05DFE2CE000F05AFE3B7919468C
S1131240E02002F0E7F80346FB7297F90530DB4330
S11312505AB297F90B3013405BB2BB72FA787B79C0
S113126013407B72BA7A7B7A13433B7200F040FEE0
S11312703A7A3B791946E02002F082F800F038FE11
S11312803B791946E02002F0C5F80346BB7100F033
S11312902FFEFB680133FB60FB68B3F5AF7F97D388
S11312A000BF1037BD4680BDA88B000080B584B058
S11312B000AF0023FB720023BB7200237B72002368
S11312C03B720023FB710023BB710023FB6063E0CE
S11312D03549FA6813465B0013440B4402331B7808
S11312E07B717B79002B54D02F49FA6813465B003D
S11312F013440B441B783B712B49FA6813465B007B
S113130013440B4401331B78FB707B79FF2B13D1FF
S113131000F0EEFDFA783B791946E02002F030F84F
S113132000F0E6FD3B791946E02002F073F803462D
S1131330FB7100F0DDFD2CE000F0DAFD3B7919468D
S1131340E02002F067F80346FB7297F90530DB43AF
S11313505AB297F90B3013405BB2BB72FA787B79BF
S113136013407B72BA7A7B7A13433B7200F0C0FD60
S11313703A7A3B791946E02002F002F800F0B8FD11
S11313803B791946E02002F045F80346BB7100F0B2
S1131390AFFDFB680133FB60FB68B3F5AF7F97D308
S11313A000BF1037BD4680BDC48F000080B584B037
S11313B000AF0023FB720023BB7200237B72002367
S11313C03B720023FB710023BB710023FB6063E0CD
S11313D03549FA6813465B0013440B4402331B7807
S11313E07B717B79002B54D02F49FA6813465B003C
S11313F013440B441B783B712B49FA6813465B007A
S113140013440B4401331B78FB707B79FF2B13D1FE
S113141000F06EFDFA783B791946E02001F0B0FF48
S113142000F066FD3B791946E02001F0F3FF034626
S1131430FB7100F05DFD2CE000F05AFD3B7919468C
S1131440E02001F0E7FF0346FB7297F90530DB4328
S11314505AB297F90B3013405BB2BB72FA787B79BE
S113146013407B72BA7A7B7A13433B7200F040FDDF
S11314703A7A3B791946E02001F082FF00F038FD0A
S11314803B791946E02001F0C5FF0346BB7100F02B
S11314902FFDFB680133FB60FB68B3F5AF7F97D387
S11314A000BF1037BD4680BDE093000080B584B016
S11314B000AF0023FB720023BB7200237B72002366
S11314C03B720023FB710023BB710023FB6063E0CC
S11314D03549FA6813465B0013440B4402331B7806
S11314E07B717B79002B54D02F49FA6813465B003B
S11314F013440B441B783B712B49FA6813465B0079
S113150013440B4401331B78FB707B79FF2B13D1FD
S113151000F0EEFCFA783B791946E02001F030FF48
S113152000F0E6FC3B791946E02001F073FF034626
S1131530FB7100F0DDFC2CE000F0DAFC3B7919468D
S1131540E02001F067FF0346FB7297F90530DB43A7
S11315505AB297F90B3013405BB2BB72FA787B79BD
S113156013407B72BA7A7B7A13433B7200F0C0FC5F
S11315703A7A3B791946E02001F002FF00F0B8FC0A
S11315803B791946E02001F045FF0346BB7100F0AA
S1131590AFFCFB680133FB60FB68B3F5AF7F97D307
S11315A000BF1037BD4680BD5C35000080B584B0F7
S11315B000AF0023FB720023BB7200237B72002365
S11315C03B720023FB710023BB710023FB6063E0CB
S11315D03549FA6813465B0013440B4402331B7805
S11315E07B717B79002B54D02F49FA6813465B003A
S11315F013440B441B783B712B49FA6813465B0078
S113160013440B4401331B78FB707B79FF2B13D1FC
S113161000F06EFCFA783B791946E02001F0B0FE48
S113162000F066FC3B791946E02001F0F3FE034626
S1131630FB7100F05DFC2CE000F05AFC3B7919468C
S1131640E02001F0E7FE0346FB7297F90530DB4327
S11316505AB297F90B3013405BB2BB72FA787B79BC
S113166013407B72BA7A7B7A13433B7200F040FCDE
S11316703A7A3B791946E02001F082FE00F038FC0A
S11316803B791946E02001F0C5FE0346BB7100F02A
S11316902FFCFB680133FB60FB68B3F5AF7F97D386
S11316A000BF1037BD4680BD7839000080B584B0D6
S11316B000AF0023FB720023BB7200237B72002364
S11316C03B720023FB710023BB710023FB6063E0CA
S11316D03549FA6813465B0013440B4402331B7804
S11316E07B717B79002B54D02F49FA6813465B0039
S11316F013440B441B783B712B49FA6813465B0077
S113170013440B4401331B78FB707B79FF2B13D1FB
S113171000F0EEFBFA783B791946E02001F030FE48
S113172000F0E6FB3B791946E02001F073FE034626
S1131730FB7100F0DDFB2CE000F0DAFB3B7919468D
S1131740E02001F067FE0346FB7297F90530DB43A6
S11317505AB297F90B3013405BB2BB72FA787B79BB
S113176013407B72BA7A7B7A13433B7200F0C0FB5E
S11317703A7A3B791946E02001F002FE00F0B8FB0A
S11317803B791946E02001F045FE0346BB7100F0A9
S1131790AFFBFB680133FB60FB68B3F5AF7F97D306
S11317A000BF1037BD4680BD943D000080B584B0B5
S11317B000AF0023FB720023BB7200237B72002363
S11317C03B720023FB710023BB710023FB6063E0C9
S11317D03549FA6813465B0013440B4402331B7803
S11317E07B717B79002B54D02F49FA6813465B0038
S11317F013440B441B783B712B49FA6813465B0076
S113180013440B4401331B78FB707B79FF2B13D1FA
S113181000F06EFBFA783B791946E02001F0B0FD48
S113182000F066FB3B791946E02001F0F3FD034626
S1131830FB7100F05DFB2CE000F05AFB3B7919468C
S1131840E02001F0E7FD0346FB7297F90530DB4326
S11318505AB297F90B3013405BB2BB72FA787B79BA
S113186013407B72BA7A7B7A13433B7200F040FBDD
S11318703A7A3B791946E02001F082FD00F038FB0A
S11318803B791946E02001F0C5FD0346BB7100F029
S11318902FFBFB680133FB60FB68B3F5AF7F97D385
S11318A000BF1037BD4680BDB041000080B584B094
S11318B000AF0023FB720023BB7200237B72002362
S11318C03B720023FB710023BB710023FB6063E0C8
S11318D03549FA6813465B0013440B4402331B7802
S11318E07B717B79002B54D02F49FA6813465B0037
S11318F013440B441B783B712B49FA6813465B0075
S113190013440B4401331B78FB707B79FF2B13D1F9
S113191000F0EEFAFA783B791946E02001F030FD48
S113192000F0E6FA3B791946E02001F073FD034626
S1131930FB7100F0DDFA2CE000F0DAFA3B7919468D
S1131940E02001F067FD0346FB7297F90530DB43A5
S11319505AB297F90B3013405BB2BB72FA787B79B9
S113196013407B72BA7A7B7A13433B7200F0C0FA5D
S11319703A7A3B791946E02001F002FD00F0B8FA0A
S11319803B791946E02001F045FD0346BB7100F0A8
S1131990AFFAFB680133FB60FB68B3F5AF7F97D305
S11319A000BF1037BD4680BDCC45000080B584B073
S11319B000AF0023FB720023BB7200237B72002361
S11319C03B720023FB710023BB710023FB6063E0C7
S11319D03549FA6813465B0013440B4402331B7801
S11319E07B717B79002B54D02F49FA6813465B0036
S11319F013440B441B783B712B49FA6813465B0074
S1131A0013440B4401331B78FB707B79FF2B13D1F8
S1131A1000F06EFAFA783B791946E02001F0B0FC48
S1131A2000F066FA3B791946E02001F0F3FC034626
S1131A30FB7100F05DFA2CE000F05AFA3B7919468C
S1131A40E02001F0E7FC0346FB7297F90530DB4325
S1131A505AB297F90B3013405BB2BB72FA787B79B8
S1131A6013407B72BA7A7B7A13433B7200F040FADC
S1131A703A7A3B791946E02001F082FC00F038FA0A
S1131A803B791946E02001F0C5FC0346BB7100F028
S1131A902FFAFB680133FB60FB68B3F5AF7F97D384
S1131AA000BF1037BD4680BDE849000080B584B052
S1131AB000AF0023FB720023BB7200237B72002360
S1131AC03B720023FB710023BB710023FB6063E0C6
S1131AD03549FA6813465B0013440B4402331B7800
S1131AE07B717B79002B54D02F49FA6813465B0035
S1131AF013440B441B783B712B49FA6813465B0073
S1131B0013440B4401331B78FB707B79FF2B13D1F7
S1131B1000F0EEF9FA783B791946E02001F030FC48
S1131B2000F0E6F93B791946E02001F073FC034626
S1131B30FB7100F0DDF92CE000F0DAF93B7919468D
S1131B40E02001F067FC0346FB7297F90530DB43A4
S1131B505AB297F90B3013405BB2BB72FA787B79B7
S1131B6013407B72BA7A7B7A13433B7200F0C0F95C
S1131B703A7A3B791946E02001F002FC00F0B8F90A
S1131B803B791946E02001F045FC0346BB7100F0A7
S1131B90AFF9FB680133FB60FB68B3F5AF7F97D304
S1131BA000BF1037BD4680BD044E000080B584B030
S1131BB000AF0023FB720023BB7200237B7200235F
S1131BC03B720023FB710023BB710023FB6063E0C5
S1131BD03549FA6813465B0013440B4402331B78FF
S1131BE07B717B79002B54D02F49FA6813465B0034
S1131BF013440B441B783B712B49FA6813465B0072
S1131C0013440B4401331B78FB707B79FF2B13D1F6
S1131C1000F06EF9FA783B791946E02001F0B0FB48
S1131C2000F066F93B791946E02001F0F3FB034626
S1131C30FB7100F05DF92CE000F05AF93B7919468C
S1131C40E02001F0E7FB0346FB7297F90530DB4324
S1131C505AB297F90B3013405BB2BB72FA787B79B6
S1131C6013407B72BA7A7B7A13433B7200F040F9DB
S1131C703A7A3B791946E02001F082FB00F038F90A
S1131C803B791946E02001F0C5FB0346BB7100F027
S1131C902FF9FB680133FB60FB68B3F5AF7F97D383
S1131CA000BF1037BD4680BD2052000080B400AF95
S1131CB0044B1B681B0CDBB21846BD465DF8047B65
S1131CC0704700BF0080E00F80B483B000AF78603D
S1131CD039607B681A683B6822FA03F303F0010356
S1131CE018460C37BD465DF8047B704780B582B05A
S1131CF000AF03463960FB71FB79002B07D0FB79F9
S1131D00012B04D0FB79022B01D0FB79032BFA7948
S1131D1013465B0013441B01143303F1804303F5A2
S1131D20703339681846FFF7CFFF03461846083763
S1131D30BD4680BD80B483B000AF03463960FB71FB
S1131D40FB79002B07D0FB79012B04D0FB79022B04
S1131D5001D0FB79032B01223B6802FA03F3094902
S1131D60FA79184613465B0013441B010B4403F530
S1131D7000531033186000BF0C37BD465DF8047B78
S1131D80704700BF00C0034080B483B000AF034677
S1131D903960FB71FB79002B07D0FB79012B04D050
S1131DA0FB79022B01D0FB79032B01223B6802FA59
S1131DB003F30949FA79184613465B0013441B01DF
S1131DC00B4403F580531033186000BF0C37BD4635
S1131DD05DF8047B704700BF00C0034080B582B04B
S1131DE000AFFFF763FF0346012B1CD1104B5B6E62
S1131DF003F48023002B0CBF01230023FB710C4B45
S1131E0003F5835304334FF480221A60094B0422F0
S1131E101A60FB79002B06D0054B03F501532433DC
S1131E204FF480221A6000BF0837BD4680BD00BF52
S1131E30008000402020014080B500AF01213A20FD
S1131E40FEF724FA0123042203210020FEF7A8FA56
S1131E500123042204210020FEF7A2FA032100201A
S1131E60FFF792FF04210020FFF78EFF00BF80BD23
S1131E7080B500AF01213A20FEF708FA00230122C1
S1131E8000210120FEF78CFA002301220121012008
S1131E90FEF786FA0023012202210120FEF780FAD0
S1131EA000BF80BD80B500AF01213A20FEF7EEF9F6
S1131EB00023012202210220FEF772FA00230122EC
S1131EC003210220FEF76CFA00BF80BD80B500AF8D
S1131ED001213A20FEF7DAF9012304220421022029
S1131EE0FEF75EFA04210220FFF724FF00BF80BD45
S1131EF080B483B000AF00237B6002E07B680133D1
S1131F007B607B68322BF9DD00BF0C37BD465DF882
S1131F10047B704780B485B000AF78600023FB6019
S1131F2002E0FB680133FB60FA687B689A42F8DDE3
S1131F3000BF1437BD465DF8047B704780B485B09C
S1131F4000AF78600023FB6002E0FB680133FB60B4
S1131F50FA687B689A42F8DD00BF1437BD465DF825
S1131F60047B704780B485B000AF0346FB80002338
S1131F70FB810BE00023BB8102E0BB890133BB8101
S1131F80BB89082BF9D9FB890133FB81FA89FB88CA
S1131F909A42EFD300BF1437BD465DF8047B704707
S1131FA080B485B000AF78600023FB600BE00023B1
S1131FB0BB6002E0BB680133BB60BB68642BF9DD26
S1131FC0FB680133FB60FA687B689A42EFDD00BF6F
S1131FD01437BD465DF8047B7047000080B500AF40
S1131FE0FFF7FCFE9E4B14221A709E4B14221A70AB
S1131FF09D4B3F221A709D4B00221A709C4B00226D
S11320001A709C4B00221A709B4B3F221A709B4BF8
S113201000221A709A4B00221A709A4B00221A70EE
S1132020994B00221A70994B00221A70FFF704FF93
S1132030FFF71EFFFFF736FFFFF748FF0A20FFF701
S1132040AFFF01F06BF8C820FFF7AAFF1022E621CA
S1132050E02001F095F93220FFF770FF6522F121AD
S1132060E02001F08DF93220FFF768FF3220FFF7FE
S113207065FF0222F621E02001F082F93220FFF709
S11320805DFF0022E621E02001F07AF9022102201E
S1132090FFF72CFE0346DAB27B4B1A707A4B1B789F
S11320A003F00103DAB2784B1A703220FFF746FFCF
S11320B003210220FFF71AFE0346DAB2734B1A70AB
S11320C0724B1B7803F00103DAB2704B1A703220A2
S11320D0FFF734FF00210120FFF708FE0346DAB2C0
S11320E0664B1A70654B1B7803F00103DAB2634B3D
S11320F01A703220FFF722FF01210120FFF7F6FDBD
S11321000346DAB25E4B1A705D4B1B7803F0010391
S1132110DAB25B4B1A703220FFF710FF0221012064
S1132120FFF7E4FD0346DAB2564B1A70554B1B78A1
S113213003F00103DAB2534B1A703220FFF7FEFEAC
S1132140514B1B78012B0CBF01230023DAB24F4BF8
S11321501B78012B0CBF01230023DBB21340DBB23D
S1132160002B00F0FE80454B1B78012B0CBF012394
S11321700023DAB2424B1B78012B0CBF012300234E
S1132180DBB21340DBB21A463E4B1B78012B0CBF6B
S113219001230023DBB21340002B03D0304B1F225A
S11321A01A70DCE2354B1B78012B0CBF0123002392
S11321B0DAB2334B1B78012B0CBF01230023DBB2B3
S11321C01340DBB21A462F4B1B78002B0CBF0123A4
S11321D00023DBB21340002B03D0214B1E221A70C4
S11321E0BDE2264B1B78012B0CBF01230023DAB27E
S11321F0234B1B78002B0CBF01230023DBB21340BD
S1132200DBB21A461F4B1B78012B0CBF01230023A2
S1132210DBB21340002B03D0114B1D221A709EE237
S1132220164B1B78012B0CBF01230023DAB2144B8D
S11322301B78002B0CBF01230023DBB21340DBB25D
S11322401A46104B1B78002B0CBF01230023DBB272
S11322501340002B1CD0024B1C221A707FE200BFDB
S1132260850000208E0000208800002089000020C6
S11322708C00002090000020870000208D000020AA
S11322808B0000208A0000208400002086000020AB
S11322908B4B1B78002B0CBF01230023DAB2894B34
S11322A01B78012B0CBF01230023DBB21340DBB2EC
S11322B01A46854B1B78012B0CBF01230023DBB28C
S11322C01340002B03D0814B1B221A7047E27C4B36
S11322D01B78002B0CBF01230023DAB2794B1B7847
S11322E0012B0CBF01230023DBB21340DBB21A46DF
S11322F0754B1B78002B0CBF01230023DBB213406A
S1132300002B03D0714B1A221A7028E26C4B1A78F6
S11323106C4B1B781343DBB2002B0CBF012300234F
S1132320DAB2694B1B78012B0CBF01230023DBB20B
S11323301340DBB2002B03D0644B19221A700EE257
S11323405F4B1A785F4B1B781343DAB25E4B1B78F2
S11323501343DBB2002B40F002825C4B18221A704C
S1132360FDE15B4B1B78002B0CBF01230023DAB289
S1132370584B1B78012B0CBF01230023DBB2134005
S1132380DBB2002B00F0F2804D4B1B78012B0CBF0D
S113239001230023DAB24B4B1B78012B0CBF012322
S11323A00023DBB21340DBB21A46474B1B78012BE8
S11323B00CBF01230023DBB21340002B03D0434B9B
S11323C00F221A70CBE13E4B1B78012B0CBF01236B
S11323D00023DAB23B4B1B78012B0CBF01230023F3
S11323E0DBB21340DBB21A46374B1B78002B0CBF11
S11323F001230023DBB21340002B03D0334B0E2206
S11324001A70ACE12E4B1B78012B0CBF0123002367
S1132410DAB22C4B1B78002B0CBF01230023DBB258
S11324201340DBB21A46284B1B78012B0CBF012347
S11324300023DBB21340002B03D0244B0D221A706F
S11324408DE11F4B1B78012B0CBF01230023DAB253
S11324501C4B1B78002B0CBF01230023DBB2134061
S1132460DBB21A46184B1B78002B0CBF0123002348
S1132470DBB21340002B03D0144B0C221A706EE114
S11324800F4B1B78002B0CBF01230023DAB20D4B3A
S11324901B78012B0CBF01230023DBB21340DBB2FA
S11324A01A46094B1B78012B0CBF01230023DBB216
S11324B01340002B10D0054B0B221A704FE100BFC4
S11324C08D0000208B0000208A0000208500002061
S11324D08400002086000020934B1B78002B0CBF47
S11324E001230023DAB2914B1B78012B0CBF01238B
S11324F00023DBB21340DBB21A468D4B1B78002B52
S11325000CBF01230023DBB21340002B03D0894B03
S11325100A221A7023E1844B1A78844B1B781343E4
S1132520DBB2002B0CBF01230023DAB2804B1B78F3
S1132530012B0CBF01230023DBB21340DBB2002BC1
S113254003D07C4B09221A7009E1774B1A78774B38
S11325501B781343DAB2764B1B781343DBB2002BA0
S113256040F0FD80734B08221A70F8E0724B1A7821
S1132570724B1B781343DBB2002B40F0F0806A4BA4
S11325801B78012B0CBF01230023DAB2674B1B78A5
S1132590012B0CBF01230023DBB21340DBB21A462C
S11325A0634B1B78012B0CBF01230023DBB21340C8
S11325B0002B03D05F4B07221A70D0E05A4B1B78D4
S11325C0012B0CBF01230023DAB2584B1B78012BDB
S11325D00CBF01230023DBB21340DBB21A46544B79
S11325E01B78002B0CBF01230023DBB21340002B0C
S11325F003D0504B06221A70B1E04B4B1B78012BD1
S11326000CBF01230023DAB2484B1B78002B0CBF0C
S113261001230023DBB21340DBB21A46444B1B7880
S1132620012B0CBF01230023DBB21340002B03D08A
S1132630404B05221A7092E03B4B1B78012B0CBFD8
S113264001230023DAB2394B1B78002B0CBF012382
S11326500023DBB21340DBB21A46354B1B78002B48
S11326600CBF01230023DBB21340002B03D0314BFA
S113267004221A7073E02C4B1B78002B0CBF01232F
S11326800023DAB2294B1B78012B0CBF0123002352
S1132690DBB21340DBB21A46254B1B78012B0CBF6F
S11326A001230023DBB21340002B03D0214B032270
S11326B01A7054E01C4B1B78002B0CBF0123002321
S11326C0DAB21A4B1B78012B0CBF01230023DBB2B7
S11326D01340DBB21A46164B1B78002B0CBF0123A8
S11326E00023DBB21340002B03D0124B02221A70DA
S11326F035E00D4B1A780D4B1B781343DBB2002BDE
S11327000CBF01230023DAB2094B1B78012B0CBF49
S113271001230023DBB21340DBB2002B10D0054BA6
S113272001221A701BE000BF8D0000208B000020E6
S11327308A000020850000208400002086000020FC
S1132740CD4B1A78CD4B1B781343DAB2CC4B1B78A4
S11327501343DBB2002B02D1CA4B00221A70C94BBF
S11327601B7803F01F03DAB2C74B1A70C74B1A78F1
S1132770C54B1B789A4200F00284C34B1A78C34BB2
S11327801A70C14B1B781F2B25D1C820FFF708FCFA
S11327901022E621E02000F0F3FD3220FFF7BAFB1F
S11327A06522F121E02000F0EBFD3220FFF7B2FBBF
S11327B0FEF77CFE3220FFF7ADFB0222F621E0207B
S11327C000F0DEFD3220FFF7A5FB0022E621E02029
S11327D000F0D6FDD3E3AC4B1B781E2B25D1C820CB
S11327E0FFF7DEFB1022E621E02000F0C9FD3220D5
S11327F0FFF790FB6522F121E02000F0C1FD3220BB
S1132800FFF788FBFEF7D2FE3220FFF783FB02229C
S1132810F621E02000F0B4FD3220FFF77BFB00221C
S1132820E621E02000F0ACFDA9E3974B1B781D2BBB
S113283025D1C820FFF7B4FB1022E621E02000F0E8
S11328409FFD3220FFF766FB6522F121E02000F0B6
S113285097FD3220FFF75EFBFEF728FF3220FFF7DB
S113286059FB0222F621E02000F08AFD3220FFF716
S113287051FB0022E621E02000F082FD7FE3824B41
S11328801B781C2B25D1C820FFF78AFB1022E621D8
S1132890E02000F075FD3220FFF73CFB6522F121BA
S11328A0E02000F06DFD3220FFF734FBFEF77EFFE1
S11328B03220FFF72FFB0222F621E02000F060FD1A
S11328C03220FFF727FB0022E621E02000F058FD2C
S11328D055E36D4B1B781B2B25D1C820FFF760FBFC
S11328E01022E621E02000F04BFD3220FFF712FB1E
S11328F06522F121E02000F043FD3220FFF70AFBBE
S1132900FEF7D4FF3220FFF705FB0222F621E02078
S113291000F036FD3220FFF7FDFA0022E621E02028
S113292000F02EFD2BE3584B1B781A2B25D1C82021
S1132930FFF736FB1022E621E02000F021FD3220D3
S1132940FFF7E8FA6522F121E02000F019FD3220BA
S1132950FFF7E0FAFFF72AF83220FFF7DBFA02224A
S1132960F621E02000F00CFD3220FFF7D3FA00221C
S1132970E621E02000F004FD01E3434B1B78192B12
S113298025D1C820FFF70CFB1022E621E02000F03F
S1132990F7FC3220FFF7BEFA6522F121E02000F0B7
S11329A0EFFC3220FFF7B6FAFFF780F83220FFF78A
S11329B0B1FA0222F621E02000F0E2FC3220FFF717
S11329C0A9FA0022E621E02000F0DAFCD7E22E4B3F
S11329D01B78182B25D1C820FFF7E2FA1022E62134
S11329E0E02000F0CDFC3220FFF794FA6522F121BB
S11329F0E02000F0C5FC3220FFF78CFAFFF7D6F890
S1132A003220FFF787FA0222F621E02000F0B8FC1A
S1132A103220FFF77FFA0022E621E02000F0B0FC2C
S1132A20ADE2194B1B780F2B32D1C820FFF7B8FA4F
S1132A301022E621E02000F0A3FC3220FFF76AFA1E
S1132A406522F121E02000F09BFC3220FFF762FABE
S1132A50FDF72CFD3220FFF75DFA0222F621E0207B
S1132A6000F08EFC3220FFF755FA0022E621E02028
S1132A7000F086FC83E200BF8D0000208B00002064
S1132A808A000020850000208E000020880000209D
S1132A90E64B1B780E2B25D1C820FFF781FA1022B4
S1132AA0E621E02000F06CFC3220FFF733FA6522C7
S1132AB0F121E02000F064FC3220FFF72BFAFDF74F
S1132AC075FD3220FFF726FA0222F621E02000F0FD
S1132AD057FC3220FFF71EFA0022E621E02000F026
S1132AE04FFC4CE2D14B1B780D2B25D1C820FFF7AE
S1132AF057FA1022E621E02000F042FC3220FFF7D2
S1132B0009FA6522F121E02000F03AFC3220FFF7B7
S1132B1001FAFDF7CBFD3220FFF7FCF90222F62182
S1132B20E02000F02DFC3220FFF7F4F90022E6212A
S1132B30E02000F025FC22E2BC4B1B780C2B25D1B5
S1132B40C820FFF72DFA1022E621E02000F018FC3F
S1132B503220FFF7DFF96522F121E02000F010FCBC
S1132B603220FFF7D7F9FDF721FE3220FFF7D2F923
S1132B700222F621E02000F003FC3220FFF7CAF91C
S1132B800022E621E02000F0FBFBF8E1A74B1B78D4
S1132B900B2B25D1C820FFF703FA1022E621E020F1
S1132BA000F0EEFB3220FFF7B5F96522F121E020B9
S1132BB000F0E6FB3220FFF7ADF9FDF777FE322097
S1132BC0FFF7A8F90222F621E02000F0D9FB322019
S1132BD0FFF7A0F90022E621E02000F0D1FBCEE1CE
S1132BE0924B1B780A2B25D1C820FFF7D9F9102264
S1132BF0E621E02000F0C4FB3220FFF78BF96522C8
S1132C00F121E02000F0BCFB3220FFF783F9FDF74F
S1132C10CDFE3220FFF77EF90222F621E02000F0FB
S1132C20AFFB3220FFF776F90022E621E02000F026
S1132C30A7FBA4E17D4B1B78092B25D1C820FFF706
S1132C40AFF91022E621E02000F09AFB3220FFF7D2
S1132C5061F96522F121E02000F092FB3220FFF7B8
S1132C6059F9FDF723FF3220FFF754F90222F62128
S1132C70E02000F085FB3220FFF74CF90022E6212A
S1132C80E02000F07DFB7AE1684B1B78082B25D10E
S1132C90C820FFF785F91022E621E02000F070FB40
S1132CA03220FFF737F96522F121E02000F068FBBC
S1132CB03220FFF72FF9FDF779FF3220FFF72AF9C9
S1132CC00222F621E02000F05BFB3220FFF722F91C
S1132CD00022E621E02000F053FB50E1534B1B7827
S1132CE0072B25D1C820FFF75BF91022E621E0204D
S1132CF000F046FB3220FFF70DF96522F121E020B8
S1132D0000F03EFB3220FFF705F9FDF7CFFF32203C
S1132D10FFF700F90222F621E02000F031FB322017
S1132D20FFF7F8F80022E621E02000F029FB26E175
S1132D303E4B1B78062B25D1C820FFF731F9102212
S1132D40E621E02000F01CFB3220FFF7E3F86522C7
S1132D50F121E02000F014FB3220FFF7DBF8FEF74E
S1132D6025F83220FFF7D6F80222F621E02000F001
S1132D7007FB3220FFF7CEF80022E621E02000F026
S1132D80FFFAFCE0294B1B78052B25D1C820FFF75F
S1132D9007F91022E621E02000F0F2FA3220FFF7D2
S1132DA0B9F86522F121E02000F0EAFA3220FFF7B9
S1132DB0B1F8FEF77BF83220FFF7ACF80222F621D7
S1132DC0E02000F0DDFA3220FFF7A4F80022E6212B
S1132DD0E02000F0D5FAD2E0144B1B78042B27D165
S1132DE0C820FFF7DDF81022E621E02000F0C8FA41
S1132DF03220FFF78FF86522F121E02000F0C0FABD
S1132E003220FFF787F8FEF7D1F83220FFF782F877
S1132E100222F621E02000F0B3FA3220FFF77AF81C
S1132E200022E621E02000F0ABFAA8E08E000020AA
S1132E306F4B1B78032B25D1C820FFF7B1F8102264
S1132E40E621E02000F09CFA3220FFF763F86522C7
S1132E50F121E02000F094FA3220FFF75BF8FEF74E
S1132E6025F93220FFF756F80222F621E02000F07F
S1132E7087FA3220FFF74EF80022E621E02000F026
S1132E807FFA7CE05A4B1B78022B25D1C820FFF730
S1132E9087F81022E621E02000F072FA3220FFF7D2
S1132EA039F86522F121E02000F06AFA3220FFF7B8
S1132EB031F8FEF77BF93220FFF72CF80222F621D5
S1132EC0E02000F05DFA3220FFF724F80022E6212A
S1132ED0E02000F055FA52E0454B1B78012B25D138
S1132EE0C820FFF75DF81022E621E02000F048FA40
S1132EF03220FFF70FF86522F121E02000F040FABC
S1132F003220FFF707F8FEF7D1F93220FFF702F875
S1132F100222F621E02000F033FA3220FEF7FAFF15
S1132F200022E621E02000F02BFA28E0304B1B7849
S1132F30002B24D1C820FFF733F81022E621E0202B
S1132F4000F01EFA3220FEF7E5FF6522F121E020B1
S1132F5000F016FA3220FEF7DDFFFEF727FA3220E2
S1132F60FEF7D8FF0222F621E02000F009FA322011
S1132F70FEF7D0FF0022E621E02000F001FAC8208D
S1132F80FFF70EF8DA21E02000F044FA03461A466F
S1132F90184B1A706420FEF7BDFF164B1B7803F024
S1132FA00803DAB2144B1A70144B1A78124B1B78BC
S1132FB09A4206D0104B1A78104B1A70104B3F22CD
S1132FC01A700C4B1B7803F01003DAB20D4B1A7015
S1132FD00C4B1B78102B05D104210220FEF7AAFE0E
S1132FE0FFF754B804210220FEF7CEFEFFF74EB8D7
S1132FF08E0000208900002090000020870000201F
S1133000880000208C00002080B483B000AF78607A
S113301039607B681A683B6822FA03F303F0010302
S113302018460C37BD465DF8047B704780B582B006
S113303000AF03463960FB71FB79002B07D0FB79A5
S1133040012B04D0FB79022B01D0FB79032BFA79F5
S113305013465B0013441B01143303F1804303F54F
S1133060703339681846FFF7CFFF03461846083710
S1133070BD4680BD80B483B000AF03463960FB71A8
S1133080FB79002B07D0FB79012B04D0FB79022BB1
S113309001D0FB79032B01223B6802FA03F30949AF
S11330A0FA79184613465B0013441B010B4403F5DD
S11330B000531033186000BF0C37BD465DF8047B25
S11330C0704700BF00C0034080B483B000AF034624
S11330D03960FB71FB79002B07D0FB79012B04D0FD
S11330E0FB79022B01D0FB79032B01223B6802FA06
S11330F003F30949FA79184613465B0013441B018C
S11331000B4403F580531033186000BF0C37BD46E1
S11331105DF8047B704700BF00C0034080B500AF7A
S113312001213A20FDF7B2F80123042205210020F1
S1133130FDF736F90123042206210020FDF730F9BA
S113314000BF80BD80B500AF01230422052100200B
S1133150FDF726F905210020FFF7B6FF0621002020
S1133160FFF7B2FF0A20FEF7FDFE05210020FFF75E
S113317081FF0A20FEF7F6FE06210020FFF77AFF02
S11331800A20FEF7EFFE00BF80BD80B500AF01232B
S1133190042205210020FDF703F906210020FFF792
S11331A069FF05210020FFF765FF0A20FEF7DAFE1C
S11331B006210020FFF788FF0A20FEF7D3FE052131
S11331C00020FFF781FF0A20FEF7CCFE00BF80BD80
S11331D080B500AF0123042205210020FDF7E0F8AB
S11331E006210020FFF746FF0A20FEF7BBFE05215B
S11331F00020FFF769FF0A20FEF7B4FE0621002035
S1133200FFF762FF0A20FEF7ADFE06210020FFF75C
S113321031FF0A20FEF7A6FE00BF80BD80B500AFD7
S11332200123042205210020FDF7BAF8062100201D
S1133230FFF720FF0A20FEF795FE05210020FFF787
S113324043FF0A20FEF78EFE06210020FFF73CFF15
S11332500A20FEF787FE0023012205210020FDF746
S11332609FF83C20FEF77EFE05210020FFF7DEFEDE
S11332700346002B05D006210020FFF7FBFE0023A8
S113328004E006210020FFF7F5FE0123184680BD67
S113329080B584B000AF0346FB710823FB730123A0
S11332A0042205210020FDF77BF820E00621002000
S11332B0FFF7E0FE0A20FEF755FE97F90730002BD2
S11332C004DA05210020FFF7FFFE03E005210020BA
S11332D0FFF7D0FEFB795B00FB710A20FEF742FE8C
S11332E006210020FFF7F0FE0A20FEF73BFEFB7BE1
S11332F05A1EFA73002BD9D106210020FFF7BAFE1B
S113330000BF1037BD4680BD80B582B000AF082332
S1133310FB710023BB7106210020FFF7ABFE0023E5
S1133320012205210020FDF73BF81BE0BB795B007F
S1133330BB7106210020FFF79DFE0A20FEF712FE56
S113334006210020FFF7C0FE0A20FEF70BFE052130
S11333500020FFF76BFE0346002B03D0BB7943F03C
S11333600103BB71FB795A1EFA71002BDED10621D1
S11333700020FFF77FFEBB7918460837BD4680BDA5
S113338080B584B000AF0346FB710B46BB71134696
S11333907B71FFF7D7FEFB791846FFF779FF00230F
S11333A0FB6002E0FB680133FB60FFF737FF034675
S11333B0002B03D1FB68B3F5FA5FF3D3BB7918464E
S11333C0FFF766FF0023FB6002E0FB680133FB604C
S11333D0FFF724FF0346002B03D1FB68B3F5FA5F24
S11333E0F3D37B791846FFF753FF0023FB6002E019
S11333F0FB680133FB60FFF711FF0346002B03D189
S1133400FB68B3F5FA5FF3D3FFF7BFFE00BF1037D5
S1133410BD4680BD80B584B000AF03460A46FB714B
S11334201346BB71FFF78EFEFB791846FFF730FF9A
S11334300023FB6002E0FB680133FB60FFF7EEFE54
S11334400346002B03D1FB68B3F5FA5FF3D3BB79D2
S11334501846FFF71DFF0023FB6002E0FB68013301
S1133460FB60FFF7DBFE0346002B03D1FB68B3F5DB
S1133470FA5FF3D3FFF766FEFB7943F00103DBB297
S11334801846FFF705FF0023FB6002E0FB680133E9
S1133490FB60FFF7C3FE0346002B03D1FB68B3F5C3
S11334A0FA5FF3D3FFF730FF0346BB60FFF790FEEC
S11334B0FFF76BFEBB68DBB218461037BD4680BD14
S11334C008B5074B044613B1002100E000BF054BCB
S11334D01868836A03B19847204600F031F800BFAA
S11334E000000000FC97000070B50D4E00250D4C47
S11334F0A41BA410A54209D10B4E00250B4C00F0CF
S113350021F8A41BA410A54205D170BD56F825309E
S113351001359847EEE756F8253001359847F2E72C
S11335206000002060000020600000206400002093
S113353002440346934200D1704703F8011BF9E7A4
S1133540FEE700BFF8B500BFF8BC08BC9E46704754
S1133550F8B500BFF8BC08BC9E46704700000001E7
S1133560000002000003000004000005000006043F
S11335701D070000087000090F000A00000B00007E
S11335800C00000D00000E00000F000010000011E0
S113359000001200001300001400001500001600C3
S11335A0001700001800001900001A00001B7080AA
S11335B01C37FF1D60FF1EAAFF1FE3FF20C0FF2171
S11335C0C0FF22E3FF2300FF24001F25031F26035F
S11335D01F27001F28F7FF295E7F2A373F2B000093
S11335E02C00002D00002E00002F143C30387F31B9
S11335F0907F32DEC033070034100C3500FF3600F4
S1133600FF3700FF3800FF3900FF3A00FF3B00FF9F
S11336103C00FF3D00FF3E003F3F100C4030FF41A7
S113362009FF4200FF430EFF4400FF4500FF460030
S1133630FF4706FF4800FF49003F4A100C4B30FF8C
S11336404C09FF4D00FF4E0EFF4F00FF5000FF518D
S113365000FF5206FF5300FF54003F55100C560064
S1133660FF5700FF5800FF5900FF5A00FF5B00FF9F
S11336705C00FF5D00FF5E00FF5F003F60100061C3
S113368000FF622AFF6300FF6400FF6500FF66001D
S1133690FF6701FF6800FF6900FF6A803F6B00FF5E
S11336A06C007F6D00006EC0C06F00FF70007F7102
S11336B0000072C0C07300FF74807F75000076C084
S11336C0C07700FF7800FF7900007AC0C07B00005B
S11336D07C00007D00007E00007F000080000081EF
S11336E0000F82000F830000840000850000860024
S11336F0008700008800008900008A00008B000019
S11337008C00008D00008E00008F000090008091DE
S1133710000092FF009300009400009500009600C2
S1133720009700009800009900009A00009B000098
S11337309C00009D00009E000F9F000FA00000A1B0
S11337400000A20000A30000A40000A50000A60041
S113375000A70000A80000A90000AA0000AB000018
S1133760AC0000AD0000AE0000AF0000B00000B13E
S11337700000B20000B30000B40000B5000FB600B2
S113378000B70000B80000B90000BA0000BB000098
S1133790BC0000BD0000BE0000BF0000C00000C1AE
S11337A00000C20000C30000C40000C50000C60041
S11337B000C70000C80000C90000CA0000CB000F09
S11337C0CC0000CD0000CE0000CF0000D00000D11E
S11337D00000D20000D30000D40000D50000D600C1
S11337E000D70000D80000D90000DA0000DB000098
S11337F0DC0000DD0D00DE0000DF0000E0F400E18D
S1133800F000E20000E30000E40000E50000E7004F
S113381000E80000E90000EA0000EB0000EC000012
S1133820ED0000EE1400EF0000F00000F20200F3DF
S1133830F000F40000F50000F70000F80000F9A81B
S113384000FA0000FB8400FC0000FD0000FE000004
S1133850FF01FF000000010000020000030000045B
S11338600000050000060000070000080000090031
S1133870000A00000B00000C00000D00000E000008
S11338800F000010000011010012000013000014CA
S113389090001531001600001700001801001900EF
S11338A0001A00001B00001C00001D00001E000088
S11338B01F00FF2000FF2101FF2200FF2300FF243F
S11338C090FF2531FF2600FF2700FF2801FF290074
S11338D0FF2A00FF2B000F2C00002D00002E0000FB
S11338E02F00FF3000FF3101FF3200FF3300FF34AF
S11338F090FF3531FF3600FF3700FF3801FF3900F4
S1133900FF3A00FF3B000F3C00003D00003E00007A
S11339103F00FF4000FF4101FF4200FF4300FF441E
S113392090FF4531FF4600FF4700FF4801FF490073
S1133930FF4A00FF4B000F4C00004D00004E0000FA
S11339404F00FF5000FF5100FF5200FF5300FF548F
S113395090FF5531FF5600FF5700FF5801FF5900F3
S1133960FF5A00FF5B000F5C00005D00005E00007A
S1133970FF00FF0000000000000000010000020042
S11339800003000004000005000006041D070000F9
S1133990087000090F000A00000B00000C00000D65
S11339A000000E00000F00001000001100001200C3
S11339B0001300001400001500001600001700009A
S11339C01800001900001A00001B70801C37FF1D2E
S11339D060FF1EAAFF1FE3FF20C0FF21C0FF22E3F8
S11339E0FF2300FF24001F25031F26031F27001F9A
S11339F028F7FF295E7F2A373F2B00002C00002D7B
S1133A0000002E00002F143C30387F31907F32DECE
S1133A10C033070034100C3500FF3600FF3700FFB9
S1133A203800FF3900FF3A00FF3B00FF3C00FF3D38
S1133A3000FF3E003F3F100C402DFF410AFF42C0F3
S1133A40FF4364FF4400FF4500FF4690FF471BFF10
S1133A504800FF49003F4A100C4B2DFF4C0AFF4D14
S1133A60C0FF4E64FF4F00FF5000FF5190FF521BF8
S1133A70FF5300FF54003F55100C5600FF5700FF42
S1133A805800FF5900FF5A00FF5B00FF5C00FF5D18
S1133A9000FF5E00FF5F003F6010006100FF622ACC
S1133AA0FF6300FF6400FF6500FF6600FF6701FF1E
S1133AB06800FF6900FF6A803F6B00FF6C007F6D48
S1133AC000006EC0C06F00FF70007F71000072C004
S1133AD0C07300FF74807F75000076C0C07700FF5C
S1133AE07800FF7900007AC0C07B00007C00007D74
S1133AF000007E00007F000080000081000F820033
S1133B000F83000084000085000086000087000009
S1133B108800008900008A00008B00008C00008D62
S1133B2000008E00008F000090008091000092FF42
S1133B300093000094000095000096000097000098
S1133B409800009900009A00009B00009C00009DD2
S1133B5000009E000F9F000FA00000A10000A20023
S1133B6000A30000A40000A50000A60000A7000018
S1133B70A80000A90000AA0000AB0000AC0000AD42
S1133B800000AE0000AF0000B00000B10000B200C1
S1133B9000B30000B40000B5000FB60000B7000089
S1133BA0B80000B90000BA0000BB0000BC0000BDB2
S1133BB00000BE0000BF0000C00000C10000C20041
S1133BC000C30000C40000C50000C60000C7000018
S1133BD0C80000C90000CA0000CB000FCC0000CD13
S1133BE00000CE0000CF0000D00000D10000D200C1
S1133BF000D30000D40000D50000D60000D7000098
S1133C00D80000D90000DA0000DB0000DC0000DD91
S1133C100D00DE0000DF0000E0F400E1F000E2004F
S1133C2000E30000E40000E50000E70000E8000015
S1133C30E90000EA0000EB0000EC0000ED0000EEFB
S1133C401400EF0000F00000F20200F3F000F400B2
S1133C5000F50000F70000F80000F9A800FA0000E1
S1133C60FB8400FC0000FD0000FE0000FF01FF00DB
S1133C700000010000020000030000040000050031
S1133C80000600000700000800000900000A000008
S1133C900B00000C00000D00000E00000F000010CF
S1133CA000001101001200001300001490001531EF
S1133CB0001600001700001801001900001A000087
S1133CC01B00001C00001D00001E00001F00FF2040
S1133CD000FF2101FF2200FF2300FF2490FF253174
S1133CE0FF2600FF2700FF2801FF2900FF2A00FF0D
S1133CF02B000F2C00002D00002E00002F00FF30A1
S1133D0000FF3101FF3200FF3300FF3490FF3531F3
S1133D10FF3600FF3700FF3801FF3900FF3A00FF8C
S1133D203B000F3C00003D00003E00003F00FF4010
S1133D3000FF4101FF4200FF4300FF4490FF453173
S1133D40FF4600FF4700FF4801FF4900FF4A00FF0C
S1133D504B000F4C00004D00004E00004F00FF5080
S1133D6000FF5100FF5200FF5300FF5490FF5531F4
S1133D70FF5600FF5700FF5801FF5900FF5A00FF8C
S1133D805B000F5C00005D00005E0000FF00FF00B0
S1133D900000000000000001000002000003000019
S1133DA004000005000006041D0700000870000957
S1133DB00F000A00000B00000C00000D00000E00B4
S1133DC0000F00001000001100001200001300009A
S1133DD01400001500001600001700001800001958
S1133DE000001A00001B70801C37FF1D60FF1EAA14
S1133DF0FF1FE3FF20C0FF21C0FF22E3FF2300FFDA
S1133E0024001F25031F26031F27001F28F7FF294F
S1133E105E7F2A373F2B00002C00002D00002E006F
S1133E20002F143C30387F31907F32DEC0330700DE
S1133E3034100C3500FF3600FF3700FF3800FF391F
S1133E4000FF3A00FF3B00FF3C00FF3D00FF3E0047
S1133E503F3F100C4061FF4114FF4200FF4302FF4B
S1133E604400FF4500FF4600FF4703FF4800FF49A9
S1133E70003F4A100C4B61FF4C14FF4D00FF4E02F3
S1133E80FF4F00FF5000FF5100FF5203FF5300FF9C
S1133E9054003F55100C5600FF5700FF5800FF59BF
S1133EA000FF5A00FF5B00FF5C00FF5D00FF5E0047
S1133EB0FF5F003F6010006100FF622AFF6300FFA4
S1133EC06400FF6500FF6600FF6701FF6800FF698B
S1133ED000FF6A803F6B00FF6C007F6D00006EC0C6
S1133EE0C06F00FF70007F71000072C0C07300FFDC
S1133EF074807F75000076C0C07700FF7800FF797A
S1133F0000007AC0C07B00007C00007D00007E00C1
S1133F10007F000080000081000F82000F830000FA
S1133F208400008500008600008700008800008966
S1133F3000008A00008B00008C00008D00008E00C1
S1133F40008F000090008091000092FF0093000019
S1133F5094000095000096000097000098000099D6
S1133F6000009A00009B00009C00009D00009E0041
S1133F700F9F000FA00000A10000A20000A30000FA
S1133F80A40000A50000A60000A70000A80000A946
S1133F900000AA0000AB0000AC0000AD0000AE00C1
S1133FA000AF0000B00000B10000B20000B3000098
S1133FB0B40000B5000FB60000B70000B80000B9A7
S1133FC00000BA0000BB0000BC0000BD0000BE0041
S1133FD000BF0000C00000C10000C20000C3000018
S1133FE0C40000C50000C60000C70000C80000C926
S1133FF00000CA0000CB000FCC0000CD0000CE00B2
S113400000CF0000D00000D10000D20000D3000097
S1134010D40000D50000D60000D70000D80000D995
S11340200000DA0000DB0000DC0000DD0D00DE0033
S113403000DF0000E0F400E1F000E20000E3000033
S1134040E40000E50000E70000E80000E90000EA01
S11340500000EB0000EC0000ED0000EE1400EF00A7
S113406000F00000F20200F3F000F40000F500009C
S1134070F70000F80000F9A800FA0000FB8400FC37
S11340800000FD0000FE0000FF01FF000000010031
S11340900002000003000004000005000006000008
S11340A00700000800000900000A00000B00000CD3
S11340B000000D00000E00000F00001000001101B0
S11340C000120000130000149000153100160000C7
S11340D01700001801001900001A00001B00001C42
S11340E000001D00001E00001F00FF2000FF210132
S11340F0FF2200FF2300FF2490FF2531FF2600FF4D
S11341002700FF2801FF2900FF2A00FF2B000F2CA6
S113411000002D00002E00002F00FF3000FF3101B1
S1134120FF3200FF3300FF3490FF3531FF3600FFCC
S11341303700FF3801FF3900FF3A00FF3B000F3C16
S113414000003D00003E00003F00FF4000FF410131
S1134150FF4200FF4300FF4490FF4531FF4600FF4C
S11341604700FF4801FF4900FF4A00FF4B000F4C86
S113417000004D00004E00004F00FF5000FF5100B2
S1134180FF5200FF5300FF5490FF5531FF5600FFCC
S11341905700FF5801FF5900FF5A00FF5B000F5CF6
S11341A000005D00005E0000FF00FF000000000052
S11341B000000001000002000003000004000005EC
S11341C0000006041D070000087000090F000A0023
S11341D0000B00000C00000D00000E00000F00009A
S11341E0100000110000120000130000140000155C
S11341F000001600001700001800001900001A0043
S1134200001B70801C37FF1D60FF1EAAFF1FE3FF09
S113421020C0FF21C0FF22E3FF2300FF24001F254D
S1134220031F26031F27001F28F7FF295E7F2A3755
S11342303F2B00002C00002D00002E00002F143C0A
S113424030387F31907F32DEC033070034100C35B4
S113425000FF3600FF3700FF3800FF3900FF3A0047
S1134260FF3B00FF3C00FF3D00FF3E003F3F100CC2
S1134270405BFF4116FF42A0FF432DFF4400FF4572
S113428000FF46C8FF470DFF4800FF49003F4A10A2
S11342900C4B5BFF4C16FF4DA0FF4E2DFF4F00FF54
S11342A05000FF51C8FF520DFF5300FF54003F550B
S11342B0100C5600FF5700FF5800FF5900FF5A002A
S11342C0FF5B00FF5C00FF5D00FF5E00FF5F003FDF
S11342D06010006100FF622AFF6300FF6400FF6555
S11342E000FF6600FF6701FF6800FF6900FF6A8046
S11342F03F6B00FF6C007F6D00006EC0C06F00FF5D
S113430070007F71000072C0C07300FF74807F75FD
S1134310000076C0C07700FF7800FF7900007AC003
S1134320C07B00007C00007D00007E00007F000058
S113433080000081000F82000F830000840000854C
S113434000008600008700008800008900008A00C1
S1134350008B00008C00008D00008E00008F000098
S113436090008091000092FF00930000940000955B
S113437000009600009700009800009900009A0041
S1134380009B00009C00009D00009E000F9F000FFA
S1134390A00000A10000A20000A30000A40000A54A
S11343A00000A60000A70000A80000A90000AA00C1
S11343B000AB0000AC0000AD0000AE0000AF000098
S11343C0B00000B10000B20000B30000B40000B5BA
S11343D0000FB60000B70000B80000B90000BA0032
S11343E000BB0000BC0000BD0000BE0000BF000018
S11343F0C00000C10000C20000C30000C40000C52A
S11344000000C60000C70000C80000C90000CA00C0
S113441000CB000FCC0000CD0000CE0000CF000088
S1134420D00000D10000D20000D30000D40000D599
S11344300000D60000D70000D80000D90000DA0040
S113444000DB0000DC0000DD0D00DE0000DF00000A
S1134450E0F400E1F000E20000E30000E40000E525
S11344600000E70000E80000E90000EA0000EB00BB
S113447000EC0000ED0000EE1400EF0000F000007E
S1134480F20200F3F000F40000F50000F70000F879
S11344900000F9A800FA0000FB8400FC0000FD0005
S11344A000FE0000FF01FF00000001000002000008
S11344B003000004000005000006000007000008D7
S11344C000000900000A00000B00000C00000D00B1
S11344D0000E00000F000010000011010012000087
S11344E01300001490001531001600001700001886
S11344F001001900001A00001B00001C00001D0030
S1134500001E00001F00FF2000FF2101FF2200FF0A
S11345102300FF2490FF2531FF2600FF2700FF28FA
S113452001FF2900FF2A00FF2B000F2C00002D00A3
S1134530002E00002F00FF3000FF3101FF3200FF8A
S11345403300FF3490FF3531FF3600FF3700FF386A
S113455001FF3900FF3A00FF3B000F3C00003D0023
S1134560003E00003F00FF4000FF4101FF4200FF0A
S11345704300FF4490FF4531FF4600FF4700FF48DA
S113458001FF4900FF4A00FF4B000F4C00004D00A3
S1134590004E00004F00FF5000FF5100FF5200FF8B
S11345A05300FF5490FF5531FF5600FF5700FF584A
S11345B001FF5900FF5A00FF5B000F5C00005D0023
S11345C0005E0000FF00FF0000000000000000018A
S11345D000000200000300000400000500000604BF
S11345E01D070000087000090F000A00000B0000FE
S11345F00C00000D00000E00000F00001000001160
S11346000000120000130000140000150000160042
S1134610001700001800001900001A00001B708029
S11346201C37FF1D60FF1EAAFF1FE3FF20C0FF21F0
S1134630C0FF22E3FF2300FF24001F25031F2603DE
S11346401F27001F28F7FF295E7F2A373F2B000012
S11346502C00002D00002E00002F143C30387F3138
S1134660907F32DEC033070034100C3500FF360073
S1134670FF3700FF3800FF3900FF3A00FF3B00FF1F
S11346803C00FF3D00FF3E003F3F100C40C2FF4195
S11346902AFF4200FF4302FF4400FF4500FF46801B
S11346A0FF4701FF4800FF49003F4A100C4BC2FF7F
S11346B04C2AFF4D00FF4E02FF4F00FF5000FF51F8
S11346C080FF5201FF5300FF54003F55100C560069
S11346D0FF5700FF5800FF5900FF5A00FF5B00FF1F
S11346E05C00FF5D00FF5E00FF5F003F6010006143
S11346F000FF622AFF6300FF6400FF6500FF66009D
S1134700FF6701FF6800FF6900FF6A803F6B00FFDD
S11347106C007F6D00006EC0C06F00FF70007F7181
S1134720000072C0C07300FF74807F75000076C003
S1134730C07700FF7800FF7900007AC0C07B0000DA
S11347407C00007D00007E00007F0000800000816E
S1134750000F82000F8300008400008500008600A3
S1134760008700008800008900008A00008B000098
S11347708C00008D00008E00008F0000900080915E
S1134780000092FF00930000940000950000960042
S1134790009700009800009900009A00009B000018
S11347A09C00009D00009E000F9F000FA00000A130
S11347B00000A20000A30000A40000A50000A600C1
S11347C000A70000A80000A90000AA0000AB000098
S11347D0AC0000AD0000AE0000AF0000B00000B1BE
S11347E00000B20000B30000B40000B5000FB60032
S11347F000B70000B80000B90000BA0000BB000018
S1134800BC0000BD0000BE0000BF0000C00000C12D
S11348100000C20000C30000C40000C50000C600C0
S113482000C70000C80000C90000CA0000CB000F88
S1134830CC0000CD0000CE0000CF0000D00000D19D
S11348400000D20000D30000D40000D50000D60040
S113485000D70000D80000D90000DA0000DB000017
S1134860DC0000DD0D00DE0000DF0000E0F400E10C
S1134870F000E20000E30000E40000E50000E700CF
S113488000E80000E90000EA0000EB0000EC000092
S1134890ED0000EE1400EF0000F00000F20200F35F
S11348A0F000F40000F50000F70000F80000F9A89B
S11348B000FA0000FB8400FC0000FD0000FE000084
S11348C0FF01FF00000001000002000003000004DB
S11348D000000500000600000700000800000900B1
S11348E0000A00000B00000C00000D00000E000088
S11348F00F0000100000110100120000130000144A
S1134900900015310016000017000018010019006E
S1134910001A00001B00001C00001D00001E000007
S11349201F00FF2000FF2101FF2200FF2300FF24BE
S113493090FF2531FF2600FF2700FF2801FF2900F3
S1134940FF2A00FF2B000F2C00002D00002E00007A
S11349502F00FF3000FF3101FF3200FF3300FF342E
S113496090FF3531FF3600FF3700FF3801FF390073
S1134970FF3A00FF3B000F3C00003D00003E0000FA
S11349803F00FF4000FF4101FF4200FF4300FF449E
S113499090FF4531FF4600FF4700FF4801FF4900F3
S11349A0FF4A00FF4B000F4C00004D00004E00007A
S11349B04F00FF5000FF5100FF5200FF5300FF540F
S11349C090FF5531FF5600FF5700FF5801FF590073
S11349D0FF5A00FF5B000F5C00005D00005E0000FA
S11349E0FF00FF00000000000000000100000200C2
S11349F00003000004000005000006041D07000079
S1134A00087000090F000A00000B00000C00000DE4
S1134A1000000E00000F0000100000110000120042
S1134A200013000014000015000016000017000019
S1134A301800001900001A00001B70801C37FF1DAD
S1134A4060FF1EAAFF1FE3FF20C0FF21C0FF22E377
S1134A50FF2300FF24001F25031F26031F27001F19
S1134A6028F7FF295E7F2A373F2B00002C00002DFA
S1134A7000002E00002F143C30387F31907F32DE4E
S1134A80C033070034100C3500FF3600FF3700FF39
S1134A903800FF3900FF3A00FF3B00FF3C00FF3DB8
S1134AA000FF3E003F3F100C40B7FF412EFF421075
S1134AB0FF4312FF4400FF4500FF46E4FF4706FFA3
S1134AC04800FF49003F4A100C4BB7FF4C2EFF4DE6
S1134AD010FF4E12FF4F00FF5000FF51E4FF52063B
S1134AE0FF5300FF54003F55100C5600FF5700FFC2
S1134AF05800FF5900FF5A00FF5B00FF5C00FF5D98
S1134B0000FF5E00FF5F003F6010006100FF622A4B
S1134B10FF6300FF6400FF6500FF6600FF6701FF9D
S1134B206800FF6900FF6A803F6B00FF6C007F6DC7
S1134B3000006EC0C06F00FF70007F71000072C083
S1134B40C07300FF74807F75000076C0C07700FFDB
S1134B507800FF7900007AC0C07B00007C00007DF3
S1134B6000007E00007F000080000081000F8200B2
S1134B700F83000084000085000086000087000089
S1134B808800008900008A00008B00008C00008DE2
S1134B9000008E00008F000090008091000092FFC2
S1134BA00093000094000095000096000097000018
S1134BB09800009900009A00009B00009C00009D52
S1134BC000009E000F9F000FA00000A10000A200A3
S1134BD000A30000A40000A50000A60000A7000098
S1134BE0A80000A90000AA0000AB0000AC0000ADC2
S1134BF00000AE0000AF0000B00000B10000B20041
S1134C0000B30000B40000B5000FB60000B7000008
S1134C10B80000B90000BA0000BB0000BC0000BD31
S1134C200000BE0000BF0000C00000C10000C200C0
S1134C3000C30000C40000C50000C60000C7000097
S1134C40C80000C90000CA0000CB000FCC0000CD92
S1134C500000CE0000CF0000D00000D10000D20040
S1134C6000D30000D40000D50000D60000D7000017
S1134C70D80000D90000DA0000DB0000DC0000DD11
S1134C800D00DE0000DF0000E0F400E1F000E200CF
S1134C9000E30000E40000E50000E70000E8000095
S1134CA0E90000EA0000EB0000EC0000ED0000EE7B
S1134CB01400EF0000F00000F20200F3F000F40032
S1134CC000F50000F70000F80000F9A800FA000061
S1134CD0FB8400FC0000FD0000FE0000FF01FF005B
S1134CE000000100000200000300000400000500B1
S1134CF0000600000700000800000900000A000088
S1134D000B00000C00000D00000E00000F0000104E
S1134D10000011010012000013000014900015316E
S1134D20001600001700001801001900001A000006
S1134D301B00001C00001D00001E00001F00FF20BF
S1134D4000FF2101FF2200FF2300FF2490FF2531F3
S1134D50FF2600FF2700FF2801FF2900FF2A00FF8C
S1134D602B000F2C00002D00002E00002F00FF3020
S1134D7000FF3101FF3200FF3300FF3490FF353173
S1134D80FF3600FF3700FF3801FF3900FF3A00FF0C
S1134D903B000F3C00003D00003E00003F00FF4090
S1134DA000FF4101FF4200FF4300FF4490FF4531F3
S1134DB0FF4600FF4700FF4801FF4900FF4A00FF8C
S1134DC04B000F4C00004D00004E00004F00FF5000
S1134DD000FF5100FF5200FF5300FF5490FF553174
S1134DE0FF5600FF5700FF5801FF5900FF5A00FF0C
S1134DF05B000F5C00005D00005E0000FF00FF0030
S1134E000000000000000001000002000003000098
S1134E1004000005000006041D07000008700009D6
S1134E200F000A00000B00000C00000D00000E0033
S1134E30000F000010000011000012000013000019
S1134E4014000015000016000017000018000019D7
S1134E5000001A00001B70801C37FF1D60FF1EAA93
S1134E60FF1FE3FF20C0FF21C0FF22E3FF2300FF59
S1134E7024001F25031F26031F27001F28F7FF29CF
S1134E805E7F2A373F2B00002C00002D00002E00EF
S1134E90002F143C30387F31907F32DEC03307005E
S1134EA034100C3500FF3600FF3700FF3800FF399F
S1134EB000FF3A00FF3B00FF3C00FF3D00FF3E00C7
S1134EC03F3F100C4084FF4157FF4200FF4302FF65
S1134ED04400FF4500FF46C0FF4700FF4800FF496C
S1134EE0003F4A100C4B84FF4C57FF4D00FF4E020D
S1134EF0FF4F00FF5000FF51C0FF5200FF5300FF5F
S1134F0054003F55100C5600FF5700FF5800FF593E
S1134F1000FF5A00FF5B00FF5C00FF5D00FF5E00C6
S1134F20FF5F003F6010006100FF622AFF6300FF23
S1134F306400FF6500FF6600FF6701FF6800FF690A
S1134F4000FF6A803F6B00FF6C007F6D00006EC045
S1134F50C06F00FF70007F71000072C0C07300FF5B
S1134F6074807F75000076C0C07700FF7800FF79F9
S1134F7000007AC0C07B00007C00007D00007E0041
S1134F80007F000080000081000F82000F8300007A
S1134F9084000085000086000087000088000089E6
S1134FA000008A00008B00008C00008D00008E0041
S1134FB0008F000090008091000092FF0093000099
S1134FC09400009500009600009700009800009956
S1134FD000009A00009B00009C00009D00009E00C1
S1134FE00F9F000FA00000A10000A20000A300007A
S1134FF0A40000A50000A60000A70000A80000A9C6
S11350000000AA0000AB0000AC0000AD0000AE0040
S113501000AF0000B00000B10000B20000B3000017
S1135020B40000B5000FB60000B70000B80000B926
S11350300000BA0000BB0000BC0000BD0000BE00C0
S113504000BF0000C00000C10000C20000C3000097
S1135050C40000C50000C60000C70000C80000C9A5
S11350600000CA0000CB000FCC0000CD0000CE0031
S113507000CF0000D00000D10000D20000D3000017
S1135080D40000D50000D60000D70000D80000D915
S11350900000DA0000DB0000DC0000DD0D00DE00B3
S11350A000DF0000E0F400E1F000E20000E30000B3
S11350B0E40000E50000E70000E80000E90000EA81
S11350C00000EB0000EC0000ED0000EE1400EF0027
S11350D000F00000F20200F3F000F40000F500001C
S11350E0F70000F80000F9A800FA0000FB8400FCB7
S11350F00000FD0000FE0000FF01FF0000000100B1
S11351000002000003000004000005000006000087
S11351100700000800000900000A00000B00000C52
S113512000000D00000E00000F000010000011012F
S11351300012000013000014900015310016000046
S11351401700001801001900001A00001B00001CC1
S113515000001D00001E00001F00FF2000FF2101B1
S1135160FF2200FF2300FF2490FF2531FF2600FFCC
S11351702700FF2801FF2900FF2A00FF2B000F2C26
S113518000002D00002E00002F00FF3000FF310131
S1135190FF3200FF3300FF3490FF3531FF3600FF4C
S11351A03700FF3801FF3900FF3A00FF3B000F3C96
S11351B000003D00003E00003F00FF4000FF4101B1
S11351C0FF4200FF4300FF4490FF4531FF4600FFCC
S11351D04700FF4801FF4900FF4A00FF4B000F4C06
S11351E000004D00004E00004F00FF5000FF510032
S11351F0FF5200FF5300FF5490FF5531FF5600FF4C
S11352005700FF5801FF5900FF5A00FF5B000F5C75
S113521000005D00005E0000FF00FF0000000000D1
S1135220000000010000020000030000040000056B
S1135230000006041D070000087000090F000A00A2
S1135240000B00000C00000D00000E00000F000019
S113525010000011000012000013000014000015DB
S113526000001600001700001800001900001A00C2
S1135270001B70801C37FF1D60FF1EAAFF1FE3FF89
S113528020C0FF21C0FF22E3FF2300FF24001F25CD
S1135290031F26031F27001F28F7FF295E7F2A37D5
S11352A03F2B00002C00002D00002E00002F143C8A
S11352B030387F31907F32DEC033070034100C3534
S11352C000FF3600FF3700FF3800FF3900FF3A00C7
S11352D0FF3B00FF3C00FF3D00FF3E003F3F100C42
S11352E0406FFF415FFF4248FF4304FF4400FF4516
S11352F000FF4672FF4703FF4800FF49003F4A1082
S11353000C4B6FFF4C5FFF4D48FF4E04FF4F00FFF7
S11353105000FF5172FF5203FF5300FF54003F55EA
S1135320100C5600FF5700FF5800FF5900FF5A00A9
S1135330FF5B00FF5C00FF5D00FF5E00FF5F003F5E
S11353406010006100FF622AFF6300FF6400FF65D4
S113535000FF6600FF6701FF6800FF6900FF6A80C5
S11353603F6B00FF6C007F6D00006EC0C06F00FFDC
S113537070007F71000072C0C07300FF74807F757D
S1135380000076C0C07700FF7800FF7900007AC083
S1135390C07B00007C00007D00007E00007F0000D8
S11353A080000081000F82000F83000084000085CC
S11353B000008600008700008800008900008A0041
S11353C0008B00008C00008D00008E00008F000018
S11353D090008091000092FF0093000094000095DB
S11353E000009600009700009800009900009A00C1
S11353F0009B00009C00009D00009E000F9F000F7A
S1135400A00000A10000A20000A30000A40000A5C9
S11354100000A60000A70000A80000A90000AA0040
S113542000AB0000AC0000AD0000AE0000AF000017
S1135430B00000B10000B20000B30000B40000B539
S1135440000FB60000B70000B80000B90000BA00B1
S113545000BB0000BC0000BD0000BE0000BF000097
S1135460C00000C10000C20000C30000C40000C5A9
S11354700000C60000C70000C80000C90000CA0040
S113548000CB000FCC0000CD0000CE0000CF000008
S1135490D00000D10000D20000D30000D40000D519
S11354A00000D60000D70000D80000D90000DA00C0
S11354B000DB0000DC0000DD0D00DE0000DF00008A
S11354C0E0F400E1F000E20000E30000E40000E5A5
S11354D00000E70000E80000E90000EA0000EB003B
S11354E000EC0000ED0000EE1400EF0000F00000FE
S11354F0F20200F3F000F40000F50000F70000F8F9
S11355000000F9A800FA0000FB8400FC0000FD0084
S113551000FE0000FF01FF00000001000002000087
S11355200300000400000500000600000700000856
S113553000000900000A00000B00000C00000D0030
S1135540000E00000F000010000011010012000006
S11355501300001490001531001600001700001805
S113556001001900001A00001B00001C00001D00AF
S1135570001E00001F00FF2000FF2101FF2200FF8A
S11355802300FF2490FF2531FF2600FF2700FF287A
S113559001FF2900FF2A00FF2B000F2C00002D0023
S11355A0002E00002F00FF3000FF3101FF3200FF0A
S11355B03300FF3490FF3531FF3600FF3700FF38EA
S11355C001FF3900FF3A00FF3B000F3C00003D00A3
S11355D0003E00003F00FF4000FF4101FF4200FF8A
S11355E04300FF4490FF4531FF4600FF4700FF485A
S11355F001FF4900FF4A00FF4B000F4C00004D0023
S1135600004E00004F00FF5000FF5100FF5200FF0A
S11356105300FF5490FF5531FF5600FF5700FF58C9
S113562001FF5900FF5A00FF5B000F5C00005D00A2
S1135630005E0000FF00FF00000000000000000109
S1135640000002000003000004000005000006043E
S11356501D070000087000090F000A00000B00007D
S11356600C00000D00000E00000F000010000011DF
S113567000001200001300001400001500001600C2
S1135680001700001800001900001A00001B7080A9
S11356901C37FF1D60FF1EA9FF1FE3FF20C0FF2171
S11356A0C0FF22E3FF2300FF24001F25031F26035E
S11356B01F27001F28F7FF295E7F2A373F2B000092
S11356C02C00002D00002E00002F143C30397F31B7
S11356D0907F32DEC033070034100C3500FF3600F3
S11356E0FF3700FF3800FF3900FF3A00FF3B00FF9F
S11356F03C00FF3D00FF3E003F3F100C4030FF41A7
S113570009FF4200FF430EFF4400FF4500FF46002F
S1135710FF4706FF4800FF49003F4A100C4B30FF8B
S11357204C09FF4D00FF4E0EFF4F00FF5000FF518C
S113573000FF5206FF5300FF54003F55100C560063
S1135740FF5700FF5800FF5900FF5A00FF5B00FF9E
S11357505C00FF5D00FF5E00FF5F003F60100061C2
S1135760C2FF622AFF6300FF6402FF6500FF660058
S1135770FF6780FF6801FF6900FF6A803F6B00FFDD
S11357806C007F6D00006EC0C06F00FF70007F7101
S1135790000072C0C07300FF74807F75000076C083
S11357A0C07700FF7800FF7900007AC0C07B00005A
S11357B07C00007D00007E00007F000080000081EE
S11357C0000F82000F830000840000850000860023
S11357D0008700008800008900008A00008B000018
S11357E08C00008D00008E00008F000090008091DE
S11357F0000092FF009300009400009500009600C2
S1135800009700009800009900009A00009B000097
S11358109C00009D00009E000F9F000FA00000A1AF
S11358200000A20000A30000A40000A50000A60040
S113583000A70000A80000A90000AA0000AB000017
S1135840AC0000AD0000AE0000AF0000B00000B13D
S11358500000B20000B30000B40000B5000FB600B1
S113586000B70000B80000B90000BA0000BB000097
S1135870BC0000BD0000BE0000BF0000C00000C1AD
S11358800000C20000C30000C40000C50000C60040
S113589000C70000C80000C90000CA0000CB000F08
S11358A0CC0000CD0000CE0000CF0000D00000D11D
S11358B00000D20000D30000D40000D50000D600C0
S11358C000D70000D80000D90000DA0000DB000097
S11358D0DC0000DD0D00DE0000DF0000E0F400E18C
S11358E0F000E20000E30000E40000E50000E7004F
S11358F000E80000E90000EA0000EB0000EC000012
S1135900ED0000EE1400EF0000F00000F20200F3DE
S1135910F000F40000F50000F70000F80000F9A81A
S113592000FA0000FB8400FC0000FD0000FE000003
S1135930FF01FF000000010000020000030000045A
S11359400000050000060000070000080000090030
S1135950000A00000B00000C00000D00000E000007
S11359600F000010000011010012000013000014C9
S113597090001531001600001700001801001900EE
S1135980001A00001B00001C00001D00001E000087
S11359901F00FF2000FF2101FF2200FF2300FF243E
S11359A090FF2531FF2600FF2700FF2801FF290073
S11359B0FF2A00FF2B000F2C00002D00002E0000FA
S11359C02F00FF3000FF3101FF3200FF3300FF34AE
S11359D090FF3531FF3600FF3700FF3801FF3900F3
S11359E0FF3A00FF3B000F3C00003D00003E00007A
S11359F03F00FF4000FF4101FF4200FF4300FF441E
S1135A0090FF4531FF4600FF4700FF4801FF490072
S1135A10FF4A00FF4B000F4C00004D00004E0000F9
S1135A204F00FF5000FF5100FF5200FF5300FF548E
S1135A3090FF5531FF5600FF5700FF5801FF5900F2
S1135A40FF5A00FF5B000F5C00005D00005E000079
S1135A50FF00FF0000000000000000010000020041
S1135A600003000004000005000006041D070000F8
S1135A70087000090F000A00000B00000C00000D64
S1135A8000000E00000F00001000001100001200C2
S1135A900013000014000015000016000017000099
S1135AA01800001900001A00001B70801C37FF1D2D
S1135AB060FF1EA9FF1FE3FF20C0FF21C0FF22E3F8
S1135AC0FF2300FF24001F25031F26031F27001F99
S1135AD028F7FF295E7F2A373F2B00002C00002D7A
S1135AE000002E00002F143C30397F31907F32DECD
S1135AF0C033070034100C3500FF3600FF3700FFB9
S1135B003800FF3900FF3A00FF3B00FF3C00FF3D37
S1135B1000FF3E003F3F100C402DFF410AFF42C0F2
S1135B20FF4364FF4400FF4500FF4690FF471BFF0F
S1135B304800FF49003F4A100C4B2DFF4C0AFF4D13
S1135B40C0FF4E64FF4F00FF5000FF5190FF521BF7
S1135B50FF5300FF54003F55100C5600FF5700FF41
S1135B605800FF5900FF5A00FF5B00FF5C00FF5D17
S1135B7000FF5E00FF5F003F60100061C2FF622A09
S1135B80FF6300FF6402FF6500FF6600FF6780FF9C
S1135B906801FF6900FF6A803F6B00FF6C007F6D46
S1135BA000006EC0C06F00FF70007F71000072C003
S1135BB0C07300FF74807F75000076C0C07700FF5B
S1135BC07800FF7900007AC0C07B00007C00007D73
S1135BD000007E00007F000080000081000F820032
S1135BE00F83000084000085000086000087000009
S1135BF08800008900008A00008B00008C00008D62
S1135C0000008E00008F000090008091000092FF41
S1135C100093000094000095000096000097000097
S1135C209800009900009A00009B00009C00009DD1
S1135C3000009E000F9F000FA00000A10000A20022
S1135C4000A30000A40000A50000A60000A7000017
S1135C50A80000A90000AA0000AB0000AC0000AD41
S1135C600000AE0000AF0000B00000B10000B200C0
S1135C7000B30000B40000B5000FB60000B7000088
S1135C80B80000B90000BA0000BB0000BC0000BDB1
S1135C900000BE0000BF0000C00000C10000C20040
S1135CA000C30000C40000C50000C60000C7000017
S1135CB0C80000C90000CA0000CB000FCC0000CD12
S1135CC00000CE0000CF0000D00000D10000D200C0
S1135CD000D30000D40000D50000D60000D7000097
